:100000000C9457000C9474000C9474000C947400BD
:100010000C9474000C948F050C9474000C94740070
:100020000C9474000C9474000C9474000C943910AB
:100030000C9474000C9474000C9474000C94740070
:100040000C9474000C9474000C9474000C94740060
:100050000C94740008000000BE922449123EABAA22
:10006000AA2ABECDCCCC4C3E00000080BEABAAAAD2
:10007000AA3E00000000BF000000803F000000001A
:1000800000084178D3BB4387D1133D190E3CC3BD53
:100090004282AD2B3E68EC8276BED98FE1A93E4C00
:1000A00080EFFFBE01C4FF7F3F000000000011246D
:1000B0001FBECFE5D8E0DEBFCDBF12E0A0E6B0E0C6
:1000C000E0EEFCE202C005900D92AE35B107D9F723
:1000D00012E0AEE5B2E001C01D92A83CB107E1F725
:1000E0000E94D6120C946E160C940000682F81E6C4
:1000F00040E00E94080186B1876086B9379A08956A
:100100001F93182F0E94760017B93E9A3D98369A91
:10011000349BFECF349A24B135B1C9011F910895A3
:100120008434E9F0853438F48234A1F08334A0F4C7
:10013000813461F40DC0823669F0833618F481365B
:1001400029F406C0833641F0843649F08FEF0895D4
:100150006ABB03C067BB01C064BB81E0089561BB9B
:1001600081E00895843419F1853438F48234B1F093
:100170008334C0F4813461F40DC0823679F0833663
:1001800018F4813629F406C0833661F0843679F09C
:100190008FEF08958BB3862B8BBB07C088B3862B5C
:1001A00088BB03C085B3862B85BB81E0089582B3ED
:1001B000862B82BB81E00895DF93CF930F92CDB75A
:1001C000DEB78434D9F0853438F4823499F083343E
:1001D00098F48134A9F40CC0823661F0833618F4A7
:1001E000813671F405C0833639F0843649F406C08F
:1001F00089B307C086B305C083B303C080B301C011
:100200008FEF8983898190E00F90CF91DF910895DE
:10021000843409F46FC0853440F4823491F183341E
:1002200008F04CC0813471F40FC0823651F183362E
:1002300018F4813639F408C0833609F43FC0843697
:1002400009F458C08FEF0895442321F0413009F09C
:100250006EC00CC02AB381E090E002C0880F991FE5
:100260006A95E2F7809582238ABB5FC02AB381E05A
:1002700090E002C0880F991F6A95E2F7282B2ABBED
:1002800054C0442321F0413009F051C00CC027B3C1
:1002900081E090E002C0880F991F6A95E2F780958F
:1002A000822387BB42C027B381E090E002C0880F61
:1002B000991F6A95E2F7282B27BB37C0442319F012
:1002C0004130A9F50CC024B381E090E002C0880F52
:1002D000991F6A95E2F78095822384BB26C024B3D8
:1002E00081E090E002C0880F991F6A95E2F7282B01
:1002F00024BB1BC0442319F04130C9F40CC021B306
:1003000081E090E002C0880F991F6A95E2F780951E
:10031000822381BB0AC021B381E090E002C0880F34
:10032000991F6A95E2F7282B21BB81E0089581E0AF
:100330000895683008F044C08434B1F1853438F44D
:100340008234E1F0833428F58134D1F50CC0823653
:10035000A9F0833618F4813699F505C08336C9F0C3
:10036000843671F521C02BB381E090E002C0880F84
:10037000991F6A95E2F7282B2BBB20C028B381E098
:1003800090E002C0880F991F6A95E2F7282B28BBDE
:1003900015C025B381E090E002C0880F991F6A95CF
:1003A000E2F7282B25BB0AC022B381E090E002C00F
:1003B000880F991F6A95E2F7282B22BB81E00895E8
:1003C0008FEF0895683008F049C08434D1F1853446
:1003D00040F48234F1F0833440F5813409F03EC0BA
:1003E0000CC08236B1F0833618F48136B9F505C0F9
:1003F0008336D9F0843691F524C02BB381E090E0A8
:1004000002C0880F991F6A95E2F7809582238BBB03
:1004100023C028B381E090E002C0880F991F6A953D
:10042000E2F78095822388BB17C025B381E090E076
:1004300002C0880F991F6A95E2F78095822385BBD9
:100440000BC022B381E090E002C0880F991F6A952B
:10045000E2F78095822382BB81E008958FEF0895B3
:10046000843401F1853438F48234A9F08334B0F453
:10047000813461F40DC0823671F0833618F4813610
:1004800029F406C0833651F0843661F08FEF089569
:100490008FEF8BBB05C08FEF88BB02C08FEF85BB92
:1004A00081E008958FEF82BB81E008958434E9F004
:1004B000853438F48234A1F08334A0F4813461F4BB
:1004C0000DC0823669F0833618F4813629F406C0EF
:1004D000833641F0843649F08FEF08951BBA03C08C
:1004E00018BA01C015BA81E0089512BA81E00895E2
:1004F000683008F044C08434B1F1853438F4823473
:10050000E1F0833428F58134D1F50CC08236A9F0AE
:10051000833618F4813699F505C08336C9F08436E0
:1005200071F521C02BB381E090E002C0880F991FC4
:100530006A95E2F728272BBB20C028B381E090E022
:1005400002C0880F991F6A95E2F7282728BB15C0BB
:1005500025B381E090E002C0880F991F6A95E2F709
:10056000282725BB0AC022B381E090E002C0880F93
:10057000991F6A95E2F7282722BB81E008958FEF43
:100580000895683078F58434D9F0853438F48234AD
:1005900099F0833498F4813429F50CC0823661F0E7
:1005A000833618F48136F1F405C0833639F0843689
:1005B000C9F406C029B305C026B303C023B301C0E4
:1005C00020B381E090E0062E02C0880F991F0A94A4
:1005D000E2F730E08223932302C0959587956A95D0
:1005E000E2F708958FEF0895E199FECF9FBB8EBB90
:1005F0006DBBE29AE19A0895E199FECF9FBB8EBB55
:10060000E09A80ED97E00197F1F78DB30895DF92BE
:10061000EF92FF920F931F93CF93DF937C018B0197
:10062000D42EFB018081882371F0C0E0D0E006C0A9
:10063000F80161918F010E94F4022196CE018E0D86
:100640009F1DDC16A9F7DF91CF911F910F91FF90AD
:10065000EF90DF900895FF920F931F93CF93DF9356
:100660008C01EB01F42E8881882341F409C0C80174
:100670000E94FC0289930F5F1F4FFA94FF20B9F785
:10068000DF91CF911F910F91FF900895CF93DF934A
:10069000C0E0D0E0CE016FEF0E94F402219684E02A
:1006A000C030D807B9F7DF91CF91089583B984E8B6
:1006B00086BF06B607FEFDCF089584EA86BF06B65C
:1006C00007FEFDCF089584E986BF089511B887E439
:1006D00080B984E086BF0895882331F08295880F21
:1006E000880F807C846801C084E886BF06B607FE58
:1006F000FDCF83B108951FBC0895CF92DF92EF9292
:10070000FF921F93CF93DF936C01EB0183E48EBDC7
:1007100085E00E94CF0485E00E942E0508B605FC06
:1007200005C085E00E941E058823C1F385E00E9474
:100730001E05182F85E00E943F0585E00E944B05AD
:10074000E6B4F7B488B7806288BF113011F410E0C6
:1007500026C085E0BE010E94CF0485E00E942E05E0
:1007600008B605FC05C085E00E941E058823C1F37C
:1007700085E00E941E0510E0813009F011E085E05F
:100780000E943F0585E00E944B0586B597B58E19FE
:100790009F09F6019183808388B7806288BF812F8B
:1007A000DF91CF911F91FF90EF90DF90CF90089550
:1007B000CF92DF92EF92FF921F93CF93DF936C0162
:1007C000EB0183E48EBD85E00E94CF0485E00E94AA
:1007D0002E0508B605FC05C085E00E941E0588238D
:1007E000C1F385E00E941E05182F85E00E943F0599
:1007F00085E00E944B05E6B4F7B488B7806288BFF5
:10080000113011F410E028C083E08EBD85E0BE01F8
:100810000E94CF0485E00E942E0508B605FC05C0A5
:1008200085E00E941E058823C1F385E00E941E0515
:1008300010E0813009F011E085E00E943F0585E07D
:100840000E944B0586B597B58E199F09F6019183D5
:10085000808388B7806288BF812FDF91CF911F91FD
:10086000FF90EF90DF90CF900895813091F081302C
:1008700050F08230C1F08330F9F48F9A15BC89E6CC
:1008800085BD14BC0895BB9A13BE8BE683BF12BE10
:1008900008958D9A8FB581688FBD8EB58B608EBDA2
:1008A0001DBC1CBC08958C9A8FB581628FBD8EB51E
:1008B0008B608EBD1DBC1CBC0895613051F0613051
:1008C00030F0623051F0633059F483BD08958CBF2D
:1008D000089590E09BBD8ABD089590E099BD88BDC4
:1008E0000895262F9FEF899FC001112464E670E0D0
:1008F0000E94FF15222321F0233019F463BD0895CF
:100900006CBF08958FB9779BFECF8FB10895CF93B9
:10091000DF93EC0187E00E942E0588818FB97799DB
:1009200005C087E00E941E058823C9F387E00E9466
:100930003F0587E00E944B058EB19FB19883881FC9
:100940008827881FDF91CF91089593E69DB9813064
:1009500029F46C9A87B3806B87BB01C0BE9A87E08D
:1009600065E070E00E94CF04089590E0FC01EE0F76
:10097000FF1FE80FF91FDF0111968EE592E0AA0F25
:10098000BB1FA80FB91F11961C921E92EE0FFF1FDE
:10099000E80FF91F1182108214821582089590E0E9
:1009A000FC01EE0FFF1FE80FF91FDF01AA0FBB1FAD
:1009B000A25ABD4F8D919C911197892B71F411967C
:1009C0007C936E93EE0FFF1FE05AFD4F1182108251
:1009D00014961C92149715961C92089540E050E0CE
:1009E0009A01220F331F240F351FD901AA0FBB1FF5
:1009F000A25ABD4F15966C9115976130B1F4F9016B
:100A0000EE0FFF1FE05AFD4F808191810196918387
:100A10008083208131818D919C911197281739070E
:100A200021F41182108214966C934F5F5F4F4A300D
:100A30005105B1F608950E94EE04089590E0FC017E
:100A4000EE0FFF1FE80FF91FEE0FFF1FE25AFD4FD9
:100A50008481882311F0148281E0089590E0FC01E4
:100A6000EE0FFF1FE80FF91FEE0FFF1FE25AFD4FB9
:100A700080819181892B11F081E08583089590E038
:100A8000FC01EE0FFF1FE80FF91FEE0FFF1FE25AE8
:100A9000FD4F1582089590E0FC01EE0FFF1FE80F57
:100AA000F91FEE0FFF1FE05AFD4F118210820895CB
:100AB0000E9478058BE195E00E94850580E090E03A
:100AC000FC01EE0FFF1FE80FF91FEE0FFF1FDF0104
:100AD000A05ABD4F11961C921E92E25AFD4F1182F0
:100AE00010821482158201968A30910549F7089583
:100AF00085B5876085BD89E784BD89B7806489BF76
:100B000088B7806488BF7894089590939B028093FF
:100B10009A02089510929B0210929A0208951F92D1
:100B20000F920FB60F9211242F933F934F935F9321
:100B30006F937F938F939F93AF93BF93EF93FF93A5
:100B4000E0919A02F0919B02309709F0099589E7AC
:100B500084BD88B7806488BFFF91EF91BF91AF914A
:100B60009F918F917F916F915F914F913F912F91C5
:100B70000F900FBE0F901F9018955F9BFECF8CB10A
:100B800008955D9BFECF8CB90895FC0180E006C0FE
:100B900090815D9BFECF9CB98F5F31968617C0F325
:100BA000089520E004C05D9BFECFECB92F5FFC01EF
:100BB000E20FF11DE081EE23B1F708955D9BFECFBA
:100BC0008DE08CB95D9BFECF8AE08CB90895CF9201
:100BD000DF92EF92FF920F931F93DF93CF9300D09A
:100BE000CDB7DEB7F82ED62EC42E6AE00E94DF15F0
:100BF00090E08E010F5F1F4FB8014AE050E00E9465
:100C00003D16C8010E94D1058F2D6AE00E94DF15B4
:100C1000892F90E0B8014AE050E00E943D16C801DB
:100C20000E94D10580E6E82E80E0F82EC7010E94E0
:100C3000D1058D2D6AE00E94DF1590E0B8014AE0F1
:100C400050E00E943D16C8010E94D1058D2D6AE03A
:100C50000E94DF15892F90E0B8014AE050E00E9421
:100C60003D16C8010E94D105C7010E94D1058C2DF7
:100C70006AE00E94DF1590E0B8014AE050E00E946F
:100C80003D16C8010E94D1058C2D6AE00E94DF1537
:100C9000892F90E0B8014AE050E00E943D16C8015B
:100CA0000E94D1050F900F90CF91DF911F910F916E
:100CB000FF90EF90DF90CF9008950F931F93DF93F5
:100CC000CF9300D000D000D0CDB7DEB78E010F5F3C
:100CD0001F4F26E0F80111922A95E9F7B8014AE082
:100CE00050E00E943D1680E0980104C05D9BFECF5D
:100CF000ECB98F5FF901E80FF11DE081EE23B1F748
:100D000026960FB6F894DEBF0FBECDBFCF91DF9110
:100D10001F910F9108950F931F93DF93CF9300D0EE
:100D200000D000D0CDB7DEB78E010F5F1F4F26E099
:100D3000F80111922A95E9F7B8014AE050E00E94C3
:100D40003D1682E690E060E10E94C50590E09801C2
:100D50004AE107C05D9BFECFECB9842F8A95F1F77D
:100D60009F5FF901E90FF11DE081EE2399F72696C7
:100D70000FB6F894DEBF0FBECDBFCF91DF911F91AC
:100D80000F9108950F931F93DF93CF9300D000D05E
:100D900000D0CDB7DEB78E010F5F1F4F26E0F80100
:100DA00011922A95E9F7B8014AE050E00E943D16F9
:100DB00083E790E06FE00E94C50520E0B8013EE2C5
:100DC00040ED57E00CC05D9BFECFECB9213019F42B
:100DD0005D9BFECF3CB9CA010197F1F72F5FFB0184
:100DE000E20FF11DE081EE2371F782E890E063E00D
:100DF0000E94C50526960FB6F894DEBF0FBECDBF84
:100E0000CF91DF911F910F9108951F93182F86E0C6
:100E10000E942E055D9905C086E00E941E0588236C
:100E2000C9F386E00E943F0586E00E944B055D996C
:100E300002C080E002C01CB981E01F910895CF93E9
:100E4000DF93EC0186E00E942E055F9905C086E0E5
:100E50000E941E058823C9F386E00E943F0586E0B4
:100E60000E944B058BB19CB19883881F8827881FEF
:100E7000DF91CF910895CF93DF93EC011AB810BCA6
:100E8000288139814A815B8164E0220F331F441F2E
:100E9000551F6A95D1F760E072E18AE790E00E9401
:100EA00012162150304040405040BB27A52F942FB0
:100EB000832F80BD29B98F818111579A888581112F
:100EC000569A89858111549A8A858111539A90B5D1
:100ED0008E818295807F892B80BD90B58D81880F12
:100EE000880F880F892B80BD2C81293011F4529AEC
:100EF0000CC0253069F0263019F480B5826807C02F
:100F0000273019F480B5846802C080B5866880BD3A
:100F100086E065E070E00E94CF04DF91CF910895F4
:100F2000FF920F931F93CF93DF93F62E8A01EC016C
:100F3000239716C00E94BD05282F8B839881F80146
:100F40008081981759F499818181981739F49A8191
:100F50008281981719F48381281721F0FA94219639
:100F6000FF2041F7DF91CF911F910F91FF900895DE
:100F70001F93CF93DF93EC01162F04C00E94BD0591
:100F8000899311501123D1F7DF91CF911F910895CB
:100F90000E94BD0508950E9405070895EF92FF92F3
:100FA0001F93CF93DF93EC0110E080E7E82E87E1F9
:100FB000F82E06C00E9405071F5FC7010197F1F7D1
:100FC000FE01E10FF11D80818823A1F7DF91CF9110
:100FD0001F91FF90EF900895EF92FF921F93CF9390
:100FE000DF93EC01162F90EAE92E9FE0F92E07C05F
:100FF00089910E9405071150C7010197F1F711234C
:10100000B9F7DF91CF911F91FF90EF900895DF9393
:10101000CF93CDB7DEB72B970FB6F894DEBF0FBED8
:10102000CDBFDE011196E3E5F2E08BE001900D9279
:101030008150E1F7CE0101960E943B072B960FB637
:10104000F894DEBF0FBECDBFCF91DF91089598B366
:10105000907F982B98BB0895EF92FF920F931F9368
:10106000CF93DF93EC0168EE73E00E94EB15182F2D
:10107000092F64E670E00E94EB15F82EE92E83E05C
:10108000C83ED807F0F082E462E00E94E20183E407
:1010900063E00E94990181E465E00E94990181E486
:1010A00064E00E94990128B3CE0168EE73E00E94CB
:1010B000EB15207F262B28BB80E197E20197F1F703
:1010C00003C0C436D105F0F083E463E00E94E2017E
:1010D00082E462E00E94990181E465E00E94990146
:1010E00081E464E00E94990128B3812F902F64E687
:1010F00070E00E94EB15207F262B28BB80E197E251
:101100000197F1F72A97F0F081E464E00E94E20190
:1011100081E465E00E94990182E462E00E94990105
:1011200083E463E00E94990128B38F2D9E2D6AE02D
:1011300070E00E94EB15207F262B28BB80E197E210
:101140000197F1F781E465E00E94E20181E464E047
:101150000E94990183E463E00E94990182E462E0C5
:101160000E94990128B38F2D9E2D6AE070E00E94A5
:10117000EB15207F282B28BB80E197E20197F1F740
:10118000DF91CF911F910F91FF90EF90089582E42E
:1011900060E041E00E94080182E461E041E00E94D9
:1011A000080182E462E041E00E94080182E463E019
:1011B00041E00E94080183E465E041E00E940801EB
:1011C00083E464E041E00E94080183E462E041E0DE
:1011D0000E94080183E463E041E00E940801089551
:1011E000282F6AE00E94DF1596E0899FC001112434
:1011F000820F0895DF92EF92FF920F931F93DF9378
:10120000CF9300D0CDB7DEB7F82EE62ED42E6AE00D
:101210000E94DF1590E08E010F5F1F4FB8014AE07A
:1012200050E00E943D16C8010E949F118F2D6AE078
:101230000E94DF15892F90E0B8014AE050E00E943B
:101240003D16C8010E949F118AE390E00E9456114A
:101250008E2D6AE00E94DF1590E0B8014AE050E070
:101260000E943D16C8010E949F118E2D6AE00E94C7
:10127000DF15892F90E0B8014AE050E00E943D164A
:10128000C8010E949F118AE390E00E9456118D2DA3
:101290006AE00E94DF1590E0B8014AE050E00E9449
:1012A0003D16C8010E949F118D2D6AE00E94DF1536
:1012B000892F90E0B8014AE050E00E943D16C80135
:1012C0000E949F110F900F90CF91DF911F910F916E
:1012D000FF90EF90DF900895EF92FF920F931F938E
:1012E000162F042F0E94F008E82E812F0E94F0088C
:1012F000F82E802F0E94F008182F0E945D0380EDC9
:101300000E94560384E00E9456038E2D0E945603CD
:101310008F2D0E945603812F0E9456030E94630363
:101320001F910F91FF90EF900895EF92FF920F930E
:101330001F93162F042F0E94F008E82E812F0E9481
:10134000F008F82E802F0E94F008182F0E945D03ED
:1013500080ED0E94560380E00E945603812F0E9478
:1013600056038F2D0E9456038E2D0E9456030E9415
:1013700063031F910F91FF90EF900895AF92BF927A
:10138000CF92DF92EF92FF920F931F937C016B013C
:101390005A010E945D0380ED0E94560384E00E9482
:1013A00056030E9463030E945D0381ED0E94560371
:1013B00081E00E946C03182F81E00E946C03082FCB
:1013C00080E00E946C03912F92959F702AEF3FEF6F
:1013D000929F902D1124910FF7019083902F929559
:1013E0009F70929F902D1124900FF6019083982F5B
:1013F00092959F70929F902D1124980FF5019083E4
:101400000E9463031F910F91FF90EF90DF90CF90A8
:10141000BF90AF900895AF92BF92CF92DF92EF92BC
:10142000FF920F931F935C016B017A010E945D0391
:1014300080ED0E94560380E00E9456030E946303E1
:101440000E945D0381ED0E94560381E00E946C03BF
:10145000182F81E00E946C03082F80E00E946C032B
:10146000912F92959F702AEF3FEF929F902D11241C
:10147000910FF7019083902F92959F70929F902DDE
:101480001124900FF6019083982F92959F70929F50
:10149000902D1124980FF50190830E9463031F91F2
:1014A0000F91FF90EF90DF90CF90BF90AF90089595
:1014B0000E9466030E945D0380ED0E94560387E050
:1014C0000E94560380E00E9456030E94630388EC4A
:1014D00090E00197F1F708950F931F93082F162FAF
:1014E0000E945D03812F0E945603802F0E945603A5
:1014F0000E945D03812F81600E94560380E00E945C
:101500006C03182F0E946303812F1F910F91089580
:10151000FF920F931F93182F062FF42E0E945D0346
:10152000802F0E945603812F0E9456038F2D0E9408
:1015300056030E94630380E395E70197F1F71F913B
:101540000F91FF9008950E9466030895DF92EF9235
:10155000FF920F931F93DF93CF930F92CDB7DEB718
:10156000D82E8B017A0181E0898380E26030780790
:1015700008F019820E945D038D2D0E945603812F71
:101580000E945603802F0E9456030E945D038D2DFA
:1015900081600E94560380E00E946C03F701808303
:1015A0000E94630389810F90CF91DF911F910F916A
:1015B000FF90EF90DF900895EF92FF920F931F93AB
:1015C000DF93CF930F92CDB7DEB7F82E8B01E42EC9
:1015D00081E0898380E26030780708F019820E94F8
:1015E0005D038F2D0E945603812F0E945603802F8A
:1015F0000E9456038E2D0E9456030E94630380E4CE
:101600009CE90197F1F789810F90CF91DF911F91AC
:101610000F91FF90EF9008950E94660308950F9335
:101620001F930E9403110E94C51181E061E00E9496
:101630007E1186E890E00E949F1180E29EE428ECF3
:1016400030E0F9013197F1F70197D9F70E94C51100
:1016500081E061E00E947E1180911A0290911B024C
:101660000E949F1180E29EE428EC30E0F90131975E
:10167000F1F70197D9F706C011E00E949310082FE7
:10168000882311F410E0F9CF1123B9F781E061E06C
:101690000E947E11802F90E062E00E948E1209303D
:1016A00059F70E94C51181E061E00E947E1185E931
:1016B00090E00E949F111F910F9108950F931F9327
:1016C000CF93DF930E94C51181E061E00E947E11FB
:1016D00080912202909123020E949F1180E29EE459
:1016E00028EC30E0F9013197F1F70197D9F7C0E024
:1016F000D0E008EC10E00E94C51181E061E00E949A
:101700007E1181EA90E00E949F1187E00E94800094
:1017100062E00E948E1288E893E1F8013197F1F7B8
:101720000197D9F72196CC30D10529F70E94C51130
:1017300080E29EE428EC30E0F9013197F1F701975F
:10174000D9F782EB90E00E949F1180E197E228ECAC
:1017500030E0F9013197F1F70197D9F7DF91CF9197
:101760001F910F910895EF92FF920F931F93CF93C4
:10177000DF930E94C7080E94C51181E061E00E94CA
:101780007E1180912002909121020E949F1100E021
:1017900010E0C0E0D0E0EE24FF2406C02196CA315C
:1017A000D10510F0095A1B4FC80167E574E00E948B
:1017B000EB15892B31F4CA31D10518F07801C0E05E
:1017C000D0E0C7010E942C0887E20031180730F3EF
:1017D0000E94C5118FEB90E00E949F1180EE9EE267
:1017E00028EC30E0F9013197F1F70197D9F7DF9153
:1017F000CF911F910F91FF90EF90089584E467E0DF
:1018000041E00E94080184E467E00E94E2010E9436
:10181000C51181E061E00E947E1180911C029091CF
:101820001D020E949F1180E29EE428EC30E0F90145
:101830003197F1F70197D9F784E467E00E949901A5
:1018400080E197E228EC30E0F9013197F1F7019758
:10185000D9F784E467E00E94E2010E94C51181E0AB
:1018600061E00E947E118BEC90E00E949F1180E16C
:1018700097E228EC30E0F9013197F1F70197D9F7B9
:10188000089584E464E041E00E94080184E465E096
:1018900041E00E94080184E466E041E00E94080102
:1018A00084E467E041E00E94080184E467E041E0ED
:1018B0000E94080184E464E00E94990184E467E0E6
:1018C0000E94E20184E465E00E94990184E466E0FC
:1018D0000E94990184E467E00E9499010E94C51169
:1018E00081E061E00E947E118091180290911902BE
:1018F0000E949F1182E064E00E947E1185ED90E0DD
:101900000E949F1180E797E128EC30E0F9013197C0
:10191000F1F70197D9F784E464E00E94E20184E4DE
:1019200065E00E94E20184E466E00E94E20184E452
:1019300067E00E94E20180E197E228EC30E0F901E3
:101940003197F1F70197D9F784E466E00E94990195
:1019500084E467E00E94990184E464E00E949901B4
:1019600084E465E00E94990180E197E228EC30E090
:10197000F9013197F1F70197D9F784E464E00E9407
:10198000E20184E465E00E94E20184E466E00E94F2
:10199000E20184E467E00E94E20180E197E228EC42
:1019A00030E0F9013197F1F70197D9F784E466E067
:1019B0000E94990184E467E00E94990184E464E054
:1019C0000E94990184E465E00E94990180E197E218
:1019D00028EC30E0F9013197F1F70197D9F784E469
:1019E00064E00E94E20184E466E00E94E20188E88B
:1019F00093E128EC30E0F9013197F1F70197D9F73D
:101A000084E465E00E94E20184E467E00E94E20170
:101A100088E893E128EC30E0F9013197F1F701977C
:101A2000D9F784E466E00E94990184E464E00E94AE
:101A3000990188E893E128EC30E0F9013197F1F75A
:101A40000197D9F784E467E00E94990184E465E096
:101A50000E9499010E94C51180EE90E00E949F11A2
:101A600080E29EE428EC30E0F9013197F1F701972C
:101A7000D9F708950E94131288EE93E028EC30E025
:101A8000F9013197F1F70197D9F70E94C51181E06B
:101A900064E00E947E1180910802909109020E94E8
:101AA0009F1182E063E00E947E1180910A02909172
:101AB0000B020E949F1180E395E728EC30E0F901CA
:101AC0003197F1F70197D9F70E94C5118EEE90E09A
:101AD0000E949F1182E065E00E947E1180E091E00B
:101AE0000E949F1180E29EE428EC30E0F9013197DA
:101AF000F1F70197D9F7089583B7836083BF89B75A
:101B0000816089BF81E082BF789408950E9480003F
:101B10009093A5028093A40280919C0290919D02D3
:101B2000A0919E02B0919F020296A11DB11D8093CB
:101B30009C0290939D02A0939E02B0939F0280917D
:101B40009C0290919D02A0919E02B0919F022091D3
:101B5000A0023091A1024091A2025091A302821BE7
:101B6000930B9093AD028093AC022091A40230912C
:101B7000A5028091340290913502281739073CF56F
:101B80002091AC023091AD0280913A0290913B02DB
:101B900065E070E00E94FF15CB01880F991F860F4A
:101BA000971F821793079CF42091A4023091A502FD
:101BB00080913202909133022817390744F48091C2
:101BC000A4029091A5029093330280933202209157
:101BD000A4023091A50280913402909135028217BF
:101BE00093079CF42091A4023091A50280913002C9
:101BF000909131028217930744F48091A40290914E
:101C0000A50290933102809330028091AC029091B2
:101C1000AD028B3F91050CF4F5C02091A4023091E8
:101C2000A5028091340290913502821793070CF03F
:101C3000E9C08091A602882309F0E4C02091AC029B
:101C40003091AD0280913A0290913B0265E070E0E4
:101C50000E94FF15CB01880F991F860F971F8217CF
:101C600093070CF0CFC081E08093A60284E465E086
:101C70000E94E20180919C0290919D02A0919E029F
:101C8000B0919F022091A0023091A1024091A20246
:101C90005091A302821B930B90933B0280933A02D4
:101CA00080919C0290919D02A0919E02B0919F0212
:101CB0008093A0029093A102A093A202B093A302EA
:101CC00080913802882319F010923802089580918B
:101CD00039028823A1F01092390220E030E080918F
:101CE0003A0290913B02F901EE0FFF1FEE54FD4FB7
:101CF000918380832F5F3F4F2A30310581F720E0A9
:101D000030E0B9016F5F7F4FFB01EE0FFF1FEE5414
:101D1000FD4F80819181F901EE0FFF1FEE54FD4FC1
:101D2000918380832091A8023091A9024091AA0258
:101D30005091AB0280819181AA2797FDA095BA2F7F
:101D4000820F931FA41FB51F8093A8029093A9022E
:101D5000A093AA02B093AB026930710511F09B0108
:101D6000D0CF80913A0290913B029093C50280932C
:101D7000C4022091A8023091A9024091AA02509178
:101D8000AB028091C4029091C502AA2797FDA0954D
:101D9000BA2F820F931FA41FB51F8093A8029093A0
:101DA000A902A093AA02B093AB026091A80270911D
:101DB000A9028091AA029091AB022AE030E040E0B3
:101DC00050E00E941216C901DA018093A802909394
:101DD000A902A093AA02B093AB022091A80230916D
:101DE000A9024091AA025091AB0260E67AEE80E02F
:101DF00090E00E9412163093C7022093C60281E041
:101E00008093A7022091A4023091A5028091340210
:101E10009091350228173907D4F58091A6028130B8
:101E2000B1F584E465E00E9499011092A6028091C8
:101E30003002909131022091320230913302821BA4
:101E4000930B9093370280933602809136029091E3
:101E50003702209132023091330262E070E00E943A
:101E6000FF15260F371F30933502209334028091DF
:101E70003402909135029093310280933002809128
:101E80003402909135029093330280933202809114
:101E9000AC029091AD02855C99401CF180E092E02B
:101EA00090933502809334029093310280933002F4
:101EB000909333028093320280919C0290919D0214
:101EC000A0919E02B0919F028093A0029093A102E4
:101ED000A093A202B093A30281E080933802809382
:101EE00039020895AF92BF92CF92DF92EF92FF92A4
:101EF0000F931F9387E00E948000A0E0B0E0BC0138
:101F0000CD010E944E1420E030EC4FE754E40E94D3
:101F1000BA1320E030E44CE955E40E9425157B011A
:101F20008C0120E030E14AE156E40E9425155B0176
:101F30006C0160E070E48CE995E4A80197010E94CF
:101F400055139B01AC01C601B5010E94BA137B0178
:101F50008C012AE939ED43EE54E40E94DC14882315
:101F60007CF0C801B70123EA31E74FEC55E40E9449
:101F7000BA130E94E5142BE13EE141E35DEB68C03A
:101F8000C801B70123E333EA48EB54E40E94DC14B0
:101F900088237CF0C801B70122EF3BE148EC55E40F
:101FA0000E94BA130E94E51422EB33E34CE25DEB8E
:101FB0004FC0C801B7012AE939E946E954E40E9453
:101FC000DC1488237CF0C801B70121E230E34FEB39
:101FD00055E40E94BA130E94E5142EE83DED46E256
:101FE0005DEB36C0C801B70126E636E047E754E4AA
:101FF0000E94DC1488237CF0C801B70122E838E194
:1020000047EB55E40E94BA130E94E51424E53EE62E
:1020100042E25DEB1DC0C801B7012DEC3CEE4AE485
:1020200054E40E94DC1487FF05C060E070E080E0AB
:1020300090E010C0C801B70121E93FE34EEA55E442
:102040000E94BA130E94E51420E83AEE4DE15DEBE0
:102050000E94BA1320E030E048EC52E40E942515BB
:102060001F910F91FF90EF90DF90CF90BF90AF90B6
:1020700008951F920F920FB60F9211242F933F9342
:102080004F935F936F937F938F939F93AF93BF9380
:10209000EF93FF93F89485E00E94860D8091A7024C
:1020A000813039F587E00E94720F6093AE02709321
:1020B000AF028093B0029093B1026091AE02709132
:1020C000AF028091B0029091B1020E942214DC0113
:1020D000CB010E94C2068091C6029091C7020E9465
:1020E0008B068DE00E94C1058AE00E94C105109216
:1020F000A70288B78E7F88BF81E082BF7894FF9166
:10210000EF91BF91AF919F918F917F916F915F916F
:102110004F913F912F910F900FBE0F901F901895E8
:102120000E94131208951F9316B881E465E00E947F
:10213000E20181E464E00E94990181E463E00E948D
:10214000990181E460E00E94C102882311F411E04A
:1021500011C081E461E00E94C102882311F414E0FF
:1021600009C081E462E00E94C102882311F417E0F3
:1021700001C010E081E464E00E94E20181E465E0D6
:102180000E94990181E463E00E94990181E460E08A
:102190000E94C102882311F412E00FC081E461E0C3
:1021A0000E94C102882311F415E007C081E462E0B7
:1021B0000E94C102882309F418E081E463E00E94D0
:1021C000E20181E465E00E94990181E464E00E94FB
:1021D000990181E460E00E94C102882311F413E0B8
:1021E0000FC081E461E00E94C102882311F416E06F
:1021F00007C081E462E00E94C102882309F419E06B
:10220000812F1F91089581E460E040E00E94080161
:1022100081E461E040E00E94080181E462E040E086
:102220000E94080181E465E041E00E94080181E428
:1022300064E041E00E94080181E463E041E00E9423
:10224000080181E460E00E94990181E461E00E945C
:10225000990181E462E00E9499010895AE98C798BF
:10226000C698C598C49887FDC79A86FDC69A85FD0D
:10227000C59A84FDC49AAF9A95E09A95F1F7AF9804
:10228000C798C698C598C49883FDC79A82FDC69A18
:1022900081FDC59A80FDC49AAF9A85E08A95F1F7D1
:1022A000AF9888E592E00197F1F70895AE9AC79844
:1022B000C698C598C49887FDC79A86FDC69A85FDBD
:1022C000C59A84FDC49AAF9A95E09A95F1F7AF98B4
:1022D000C798C698C598C49883FDC79A82FDC69AC8
:1022E00081FDC59A80FDC49AAF9A85E08A95F1F781
:1022F000AF9888E592E00197F1F70895DF93CF93C7
:1023000000D000D0CDB7DEB790E8998390EC9A83E7
:1023100094E99B8394ED9C836150FE01E80FF11DCD
:102320008081860F0E942E1180E49CE90197F1F7CD
:102330000F900F900F900F90CF91DF9108951F9302
:10234000CF93DF93EC0110E003C00E9456111F5F92
:10235000FE01E10FF11D80818823B9F7DF91CF9154
:102360001F9108950F931F93CF93DF93062FEC01D6
:1023700010E004C089910E9456111F5F1017D0F31E
:10238000DF91CF911F910F91089581E00E942E114E
:1023900085E08A95F1F780E29EE40197F1F70895D0
:1023A0000F931F93CF93DF938B01883090F4880FA6
:1023B000880F880F805C0E942E11C0E0D0E0F801E9
:1023C000EC0FFD1F80810E9456112196C830D10567
:1023D000B1F7DF91CF911F910F910895CF93DF93C4
:1023E000EC01888182958F708A3010F0895C01C081
:1023F000805D0E94561188818F708A3010F0895C50
:1024000001C0805D0E945611DF91CF91089588BB75
:10241000AE98AF9A80ED97E0FC013197F1F7AF9855
:102420000197F1F708950F931F93A79AA69A87B380
:10243000806F87BB88B388BB80E30E94071200E2ED
:102440001EE4C8010197F1F780E30E940712C8015A
:102450000197F1F780E30E940712C8010197F1F795
:1024600080E20E940712C8010197F1F7C8010197A5
:10247000F1F788E20E942E118CE00E942E1186E076
:102480000E942E1180E80E942E1180E49CE90197A1
:10249000F1F71F910F91089580EC0E942E1180E4B6
:1024A0009CE90197F1F70895EF92FF920F93DF9364
:1024B000CF93CDB7DEB728970FB6F894DEBF0FBE27
:1024C000CDBF9E012F5F3F4F38872F8326E0EF81DE
:1024D000F88511922A95E9F7BE016F5F7F4F4AE0B8
:1024E00050E00E943D1600E07E010894E11CF11CC2
:1024F00003C00E9456110F5FF701E00FF11D8081AC
:102500008823B9F728960FB6F894DEBF0FBECDBF6B
:10251000CF91DF910F91FF90EF900895BF92CF92EE
:10252000DF92EF92FF920F93DF93CF93CDB7DEB799
:1025300028970FB6F894DEBF0FBECDBFB62E9E0112
:102540002F5F3F4F38872F8326E0EF81F885119268
:102550002A95E9F7BE016F5F7F4F4AE050E00E9485
:102560003D1600E06E010894C11CD11C09C00F5F2C
:102570008B2D602F0E947E11F70180810E945611E1
:102580007601E00EF11CF7018081882381F72896FF
:102590000FB6F894DEBF0FBECDBFCF91DF910F9184
:1025A000FF90EF90DF90CF90BF900895BF92CF92B1
:1025B000DF92EF92FF920F931F93DF93CF93CDB7EC
:1025C000DEB7EC970FB6F894DEBF0FBECDBFFE01AD
:1025D000319684E1DF011D928A95E9F7DE01559677
:1025E000E5EDF1E08DE001900D928150E1F7FE0103
:1025F000B29687E0DF011D928A95E9F7DE01999690
:10260000E9EEF1E08EE001900D928150E1F7FE01DC
:10261000F79686E0DF011D928A95E9F70E94070888
:1026200084E464E041E00E94080184E467E041E062
:102630000E94080184E467E00E94990184E464E058
:102640000E94E20124E1B22E8E010F5F1F4F95E13F
:10265000C92ED12CCC0EDD1E89E2E82EF12CEC0E19
:10266000FD1EF8018B2D11928A95E9F7C80164E1EE
:1026700040ED51E00E949007C801B6010E94341657
:10268000009729F484E464E00E9499010AC0C8011B
:10269000B7010E943416009721F484E464E00E949C
:1026A000E201C8010E94CE07DCCF5058BB27AA2701
:1026B0000ED048C139D130F03ED120F031F49F3FE7
:1026C00011F41EF42EC10EF4E095E7FB24C1E92FAE
:1026D0004AD180F3BA17620773078407950718F089
:1026E00071F49EF562C10EF4E0950B2EBA2FA02D69
:1026F0000B01B90190010C01CA01A0011124FF27AF
:10270000591B99F0593F50F4503E68F11A16F040A9
:10271000A22F232F342F4427585FF3CF46953795A8
:102720002795A795F0405395C9F77EF41F16BA0B6D
:10273000620B730B840BBAF09150A1F0FF0FBB1F1B
:10274000661F771F881FC2F70EC0BA0F621F731F64
:10275000841F48F4879577956795B795F7959E3FC1
:1027600008F0B3CF9395880F08F09927EE0F97954F
:10277000879508950CD0E6C0DED040F0D5D030F07B
:1027800021F45F3F19F0C7C0511110C1CAC0EBD08E
:1027900098F39923C9F35523B1F3951B550BBB2728
:1027A000AA2762177307840738F09F5F5F4F220FD5
:1027B000331F441FAA1FA9F333D00E2E3AF0E0E8CE
:1027C00030D091505040E695001CCAF729D0FE2F1A
:1027D00027D0660F771F881FBB1F261737074807AC
:1027E000AB07B0E809F0BB0B802DBF01FF27935862
:1027F0005F4F2AF09E3F510568F08DC0D7C05F3F04
:10280000ECF3983EDCF3869577956795B795F79549
:102810009F5FC9F7880F911D9695879597F9089541
:10282000E1E0660F771F881FBB1F621773078407DD
:10283000BA0720F0621B730B840BBA0BEE1F88F7EC
:10284000E095089598D088F09F5790F0B92F992778
:10285000B751A0F0D1F0660F771F881F991F1AF0AB
:10286000BA95C9F712C0B13081F09FD0B1E0089598
:102870009CC0672F782F8827B85F39F0B93FCCF319
:10288000869577956795B395D9F73EF490958095A1
:10289000709561957F4F8F4F9F4F0895E89409C0C1
:1028A00097FB3EF490958095709561957F4F8F4F83
:1028B0009F4F9923A9F0F92F96E9BB279395F69599
:1028C000879577956795B795F111F8CFFAF4BB0F17
:1028D00011F460FF1BC06F5F7F4F8F4F9F4F16C07B
:1028E000882311F096E911C0772321F09EE8872F05
:1028F000762F05C0662371F096E8862F70E060E0C1
:102900002AF09A95660F771F881FDAF7880F969539
:10291000879597F9089597F99F6780E870E060E0E0
:1029200008959FEF80EC089500240A941616170668
:1029300018060906089500240A94121613061406B0
:1029400005060895092E0394000C11F4882352F013
:10295000BB0F40F4BF2B11F460FF04C06F5F7F4FCB
:102960008F4F9F4F089557FD9058440F551F59F0B2
:102970005F3F71F04795880F97FB991F61F09F3F6C
:1029800079F087950895121613061406551FF2CF95
:102990004695F1DF08C0161617061806991FF1CFE5
:1029A00086957105610508940895E894BB2766270C
:1029B0007727CB0197F90895ABD008F48FEF0895EE
:1029C0000EF0CAC0AECF6894A6CFD5DFC8F3992366
:1029D000D1F3C6F3DF93CF931F930F93FF92C92FC9
:1029E000DD2788232AF02197660F771F881FDAF7E3
:1029F00020E030E040E85FEB9FE3883920F0803E44
:102A000030F021968F7752DEE4E5F0E003C04EDE31
:102A1000E1E8F0E0AFD08B01BE01EC01FB2E6F5777
:102A200071097595771F880B990B3ADF28E132E71A
:102A300041E35FE316D0AF2D9801AE01FF900F91F7
:102A40001F91CF91DF9143DE7DCF0BD07BCF6CDF29
:102A500028F071DF18F0952309F05DCF62CF1124C3
:102A6000A5CF81DFA0F3959FD1F3950F50E0551FBF
:102A7000629FF001729FBB27F00DB11D639FAA27D3
:102A8000F00DB11DAA1F649F6627B00DA11D661F22
:102A9000829F2227B00DA11D621F739FB00DA11D43
:102AA000621F839FA00D611D221F749F3327A00DFD
:102AB000611D231F849F600D211D822F762F6A2F99
:102AC00011249F5750408AF0E1F088234AF0EE0F1E
:102AD000FF1FBB1F661F771F881F91505040A9F72B
:102AE0009E3F510570F017CF61CF5F3FECF3983EEA
:102AF000DCF3869577956795B795F795E7959F5F92
:102B0000C1F7FE2B880F911D9695879597F908952B
:102B1000990F0008550FAA0BE0E8FEEF16161706EE
:102B2000E807F907C0F012161306E407F50798F056
:102B3000621B730B840B950B39F40A2661F0232B6F
:102B4000242B252B21F408950A2609F4A140A695EB
:102B50008FEF811D811D08959F3F31F0915020F42A
:102B6000879577956795B795880F911D9695879569
:102B700097F90895DF93CF931F930F93FF92EF92EE
:102B8000DF927B018C01689405C0DA2EEF0169DFCA
:102B9000FE01E894A5912591359145915591AEF3AB
:102BA000EF0195DDFE019701A801DA9479F7DF9036
:102BB000EF90FF900F911F91CF91DF910895991B96
:102BC00079E004C0991F961708F0961B881F7A9524
:102BD000C9F780950895AA1BBB1B51E107C0AA1F26
:102BE000BB1FA617B70710F0A61BB70B881F991FAE
:102BF0005A95A9F780959095BC01CD01089597FB52
:102C0000092E07260AD077FD04D0E5DF06D0002084
:102C10001AF4709561957F4F0895F6F79095819518
:102C20009F4F0895A1E21A2EAA1BBB1BFD010DC0E8
:102C3000AA1FBB1FEE1FFF1FA217B307E407F5076C
:102C400020F0A21BB30BE40BF50B661F771F881F48
:102C5000991F1A9469F760957095809590959B01DE
:102C6000AC01BD01CF010895FB01DC018D91019004
:102C700080190110D9F3990B0895FB019F01E89485
:102C80004230C4F04532B4F44A3029F497FB1EF4C4
:102C9000909581959F4F642F77270E94EB15805D5B
:102CA0008A330CF0895D8193CB010097A1F716F46C
:102CB0005DE251931082C9010C945E16DC01FC01A7
:102CC000672F71917723E1F7329704C07C916D9360
:102CD00070836291AE17BF07C8F30895F894FFCFD1
:102CE0003A002020202020202020202050424D206B
:102CF0003A200054656D7065726174757265203A92
:102D00002000204320004B45595041442054657316
:102D100074696E67004B455950414420446F6E659D
:102D200000504F54454E54494F4D45544552202E66
:102D30002E00504F54454E205445535445440037BF
:102D400053454720544553544544005465737420FB
:102D5000446F6E650054657374696E672E2E2E0085
:102D6000205465737420446F6E65203A2900204416
:102D70006576656C6F706D656E74204B69742000AC
:102D800020205465737420200057656C636F6D6557
:102D90003A2900456D62656464656446616200318C
:102DA0002D4C656473207465737400322D42757AFE
:102DB0007A6572205465737400332D375365676DDF
:102DC000656E74205465737400342D41444320545F
:102DD00065737400352D454550524F4D2054657331
:102DE0007400362D5254432054657374004C65644E
:102DF0007320616E642052656C61792000505253DB
:102E000053203920746F2072657475726E2E2E2EC9
:102E10000042555A5A45522054657374696E672EA4
:102E20002E2E0054657374696E67204F4B20003757
:102E30005345472054657374696E672E2E2E20000B
:102E40004144432054657374696E672E2E2E200012
:102E50006C616D62007475726E206F6E206C616DB6
:102E60006200000000000000007475726E206F6642
:102E700066206C616D62000000000000008025008B
:102E80000008000000000101090113011F012B01CE
:102E900039014901540162016D017D019101A301D4
:102EA000AF01C001000000000000000000000000B1
:102EB00000020002000264000101580280250000A7
:102EC000080000000001012C002B002A00400040F7
:0E2ED00000290080250000080000000001011C
:00000001FF
