:100000000C942A000C9447000C9447000C94470071
:100010000C9447000C9447000C9447000C94470044
:100020000C9447000C9447000C9447000C94470034
:100030000C9447000C9447000C9447000C94470024
:100040000C9447000C9447000C9447000C94470014
:100050000C94470011241FBECFE5D8E0DEBFCDBF12
:1000600010E0A0E6B0E0E0E0F5E002C005900D92FF
:10007000A63CB107D9F710E0A6ECB0E001C01D9294
:10008000AD3CB107E1F70E94FA010C947E020C949A
:10009000000088E18AB986E880BD83E389B910BC95
:1000A00008955D9BFECF8CB908955F9BFECF8CB108
:1000B0000895FC0104C05D9BFECF8CB93196808110
:1000C0008823C9F708950F931F93DF93CF93CDB77C
:1000D000DEB764970FB6F894DEBF0FBECDBF8E01BA
:1000E0000F5F1F4FB8014AE050E00E943902C8017B
:1000F0000E94590064960FB6F894DEBF0FBECDBFC4
:10010000CF91DF911F910F91089580EB87BBBE982F
:1001100080E58DB9689AC49808958FB9779BFECF12
:100120008FB1089580E487BB8DB90895882311F0BD
:10013000C49A0895C4980895882311F0939A089555
:1001400093980895C4988FEF0E948D00C49A0895E3
:100150000E94A20085FF02C080E0089584FD02C0D5
:100160008FEF089581E008950E94A20090E08073CF
:1001700009F491E0892F0895DF92EF92FF920F9397
:100180001F93CF93DF937B01D42E8C01C0E0D0E08E
:100190000AC0F80181918F010E948D00F701EC0FD8
:1001A000FD1F80832196CD15A0F3DF91CF911F9184
:1001B0000F91FF90EF90DF900895FF920F931F93A0
:1001C0008B01F42EC4988F710E948D00C801B80174
:1001D0004F2D0E94BC00C49A1F910F91FF9008956B
:1001E000DF93CF930F92CDB7DEB787E1BE016F5F8C
:1001F0007F4F41E00E94DD00898181700F90CF9197
:10020000DF9108950E94A20086FD05C00E94F000C3
:1002100090E0882309F491E0892F0895DF93CF932C
:100220000F92CDB7DEB788E0BE016F5F7F4F41E030
:100230000E94DD0089818F700F90CF91DF9108952A
:100240000F931F93CF93DF93062FEC0110E004C0B0
:1002500089910E948D001F5F1017D0F3DF91CF911D
:100260001F910F910895FF920F931F938B01F42E0E
:10027000C4988F7180620E948D00C8016F2D0E940A
:100280002001C49A1F910F91FF900895BC0193988B
:100290008BE045E00E943301939A08950F931F93DA
:1002A0008C018AE0B80145E00E94330180E1B80189
:1002B00045E00E9433011F910F9108951F93162F5F
:1002C000C4988F7180620E948D00812F0E948D00E2
:1002D000C49A1F910895939880E068E00E945E019F
:1002E000089587E060E70E945E0180E06AE00E9476
:1002F0005E0108950F931F938C01C49881E60E94BC
:100300008D00C801B8014091C7000E94BC00C49A8A
:1003100087E060E40E945E011F910F9108950F93A2
:100320001F938C0193980E947101C49881EE0E94E2
:100330008D00C49AC49880EA0E948D00C801609123
:10034000C7000E942001C49A939A1F910F910895AB
:10035000C49882EE0E948D00C49A87E060E70E94F4
:100360005E01939880E06BE00E945E01939A08958D
:10037000982F6093C70085E0692F0E945E0181E19C
:1003800060E00E945E0182E16091C7000E945E0110
:1003900083E160E00E945E0184E160E00E945E0112
:1003A00085E160E00E945E0186E160E00E945E01FE
:1003B00086E066E00E945E0180E068E00E945E01E7
:1003C00081E063E00E945E0182E063E00E945E01E2
:1003D00084E06FE40E945E018CE160E00E945E01B7
:1003E0000E94A80108950E9485008B9ABC9A939858
:1003F000C49A08950E94490080E690E00E94590046
:100400000E94F3018EE690E00E94590082E064E0D1
:100410000E94B8018EE790E00E9459008BEB90E0BB
:100420000E944E0180EC90E00E94460183E990E03A
:100430000E9459000E9402018823E1F389EC90E0B8
:100440000E947A0180EA90E00E9459008091C900E0
:100450000E9451008091CA000E9451008091CB00FF
:100460000E9451008091CC000E94510086EB90E0E8
:10047000DFCFFB019F01E8944230C4F04532B4F471
:100480004A3029F497FB1EF4909581959F4F642F75
:1004900077270E946A02805D8A330CF0895D819320
:1004A000CB010097A1F716F45DE251931082C901C8
:1004B0000C945A02DC01FC01672F71917723E1F75C
:1004C000329704C07C916D9370836291AE17BF0721
:1004D000C8F30895AA1BBB1B51E107C0AA1FBB1F8D
:1004E000A617B70710F0A61BB70B881F991F5A95C0
:1004F000A9F780959095BC01CD010895F894FFCFA0
:1005000053797374656D20696E69740D0A005350D8
:100510004920696E697420446F6E650D0A006E7221
:1005200066323420436F6E66696720646F6E6520A3
:100530000D0A0053746172742050726F670D0A00C7
:1005400044617461207265636965766564202D2D50
:100550002D2D2D3E3E000D0A0D0A00D7D7D7D7D737
:06056000E7E7E7E7E70012
:00000001FF
