:100000000C9457000C9474000C9474000C947400BD
:100010000C9474000C9491050C9474000C9474006E
:100020000C9474000C9474000C9474000C94B1152E
:100030000C9474000C9474000C9474000C94740070
:100040000C9474000C9474000C9474000C94740060
:100050000C94740008000000BE922449123EABAA22
:10006000AA2ABECDCCCC4C3E00000080BEABAAAAD2
:10007000AA3E00000000BF000000803F000000001A
:1000800000084178D3BB4387D1133D190E3CC3BD53
:100090004282AD2B3E68EC8276BED98FE1A93E4C00
:1000A00080EFFFBE01C4FF7F3F000000000011246D
:1000B0001FBECFE5D8E0DEBFCDBF15E0A0E6B0E0C3
:1000C000EEE6F6E302C005900D92A638B107D9F727
:1000D00015E0A6E8B5E001C01D92A53FB107E1F724
:1000E0000E9414180C94351B0C940000682F81E6B4
:1000F00040E00E940A0186B1876086B9379A089568
:100100001F93182F0E94760017B987B1806C87B9AA
:100110003D98369A349BFECF349A24B135B1C9014B
:100120001F9108958434E9F0853438F48234A1F0C5
:100130008334A0F4813461F40DC0823669F08336D3
:1001400018F4813629F406C0833641F0843649F02C
:100150008FEF08956ABB03C067BB01C064BB81E039
:10016000089561BB81E00895843419F1853438F431
:100170008234B1F08334C0F4813461F40DC082362E
:1001800079F0833618F4813629F406C0833661F09D
:10019000843679F08FEF08958BB3862B8BBB07C025
:1001A00088B3862B88BB03C085B3862B85BB81E0D3
:1001B000089582B3862B82BB81E00895DF93CF93AD
:1001C0000F92CDB7DEB78434D9F0853438F4823459
:1001D00099F0833498F48134A9F40CC0823661F02C
:1001E000833618F4813671F405C0833639F08436CD
:1001F00049F406C089B307C086B305C083B303C002
:1002000080B301C08FEF8983898190E00F90CF91F7
:10021000DF910895843409F46FC0853440F482344A
:1002200091F1833408F04CC0813471F40FC08236F0
:1002300051F1833618F4813639F408C0833609F455
:100240003FC0843609F458C08FEF0895442321F04D
:10025000413009F06EC00CC02AB381E090E002C0CA
:10026000880F991F6A95E2F7809582238ABB5FC049
:100270002AB381E090E002C0880F991F6A95E2F7E7
:10028000282B2ABB54C0442321F0413009F051C02F
:100290000CC027B381E090E002C0880F991F6A95D7
:1002A000E2F78095822387BB42C027B381E090E0CC
:1002B00002C0880F991F6A95E2F7282B27BB37C029
:1002C000442319F04130A9F50CC024B381E090E03B
:1002D00002C0880F991F6A95E2F78095822384BB3C
:1002E00026C024B381E090E002C0880F991F6A9570
:1002F000E2F7282B24BB1BC0442319F04130C9F47A
:100300000CC021B381E090E002C0880F991F6A956C
:10031000E2F78095822381BB0AC021B381E090E09F
:1003200002C0880F991F6A95E2F7282B21BB81E054
:10033000089581E00895683008F044C08434B1F134
:10034000853438F48234E1F0833428F58134D1F5F2
:100350000CC08236A9F0833618F4813699F505C0B1
:100360008336C9F0843671F521C02BB381E090E06B
:1003700002C0880F991F6A95E2F7282B2BBB20C07B
:1003800028B381E090E002C0880F991F6A95E2F7D8
:10039000282B28BB15C025B381E090E002C0880F50
:1003A000991F6A95E2F7282B25BB0AC022B381E08A
:1003B00090E002C0880F991F6A95E2F7282B22BBB4
:1003C00081E008958FEF0895683008F049C08434C3
:1003D000D1F1853440F48234F1F0833440F5813436
:1003E00009F03EC00CC08236B1F0833618F4813675
:1003F000B9F505C08336D9F0843691F524C02BB306
:1004000081E090E002C0880F991F6A95E2F780951D
:1004100082238BBB23C028B381E090E002C0880F09
:10042000991F6A95E2F78095822388BB17C025B390
:1004300081E090E002C0880F991F6A95E2F78095ED
:10044000822385BB0BC022B381E090E002C0880FFD
:10045000991F6A95E2F78095822382BB81E0089517
:100460008FEF0895843401F1853438F48234A9F093
:100470008334B0F4813461F40DC0823671F0833678
:1004800018F4813629F406C0833651F0843661F0C1
:100490008FEF08958FEF8BBB05C08FEF88BB02C035
:1004A0008FEF85BB81E008958FEF82BB81E00895D7
:1004B0008434E9F0853438F48234A1F08334A0F434
:1004C000813461F40DC0823669F0833618F48136C8
:1004D00029F406C0833641F0843649F08FEF089541
:1004E0001BBA03C018BA01C015BA81E0089512BA48
:1004F00081E00895683008F044C08434B1F1853457
:1005000038F48234E1F0833428F58134D1F50CC01D
:100510008236A9F0833618F4813699F505C0833602
:10052000C9F0843671F521C02BB381E090E002C0A0
:10053000880F991F6A95E2F728272BBB20C028B3A4
:1005400081E090E002C0880F991F6A95E2F72827A2
:1005500028BB15C025B381E090E002C0880F991F29
:100560006A95E2F7282725BB0AC022B381E090E014
:1005700002C0880F991F6A95E2F7282722BB81E005
:1005800008958FEF0895683078F58434D9F0853474
:1005900038F4823499F0833498F4813429F50CC00E
:1005A000823661F0833618F48136F1F405C0833663
:1005B00039F08436C9F406C029B305C026B303C098
:1005C00023B301C020B381E090E0062E02C0880F63
:1005D000991F0A94E2F730E08223932302C0959595
:1005E00087956A95E2F708958FEF0895E199FECF18
:1005F0009FBB8EBB6DBBE29AE19A0895E199FECF55
:100600009FBB8EBBE09A80ED97E00197F1F78DB329
:100610000895DF92EF92FF920F931F93CF93DF9392
:100620007C018B01D42EFB018081882371F0C0E016
:10063000D0E006C0F80161918F010E94F602219678
:10064000CE018E0D9F1DDC16A9F7DF91CF911F9172
:100650000F91FF90EF90DF900895FF920F931F93FB
:10066000CF93DF938C01EB01F42E8881882341F432
:1006700009C0C8010E94FE0289930F5F1F4FFA94C0
:10068000FF20B9F7DF91CF911F910F91FF9008954F
:10069000CF93DF93C0E0D0E0CE016FEF0E94F6026F
:1006A000219684E0C030D807B9F7DF91CF91089543
:1006B00083B984E886BF06B607FEFDCF089584EAB5
:1006C00086BF06B607FEFDCF089584E986BF08956C
:1006D00011B887E480B984E086BF0895882331F09B
:1006E0008295880F880F807C846801C084E886BF6B
:1006F00006B607FEFDCF83B108951FBC0895CF92C3
:10070000DF92EF92FF921F93CF93DF936C01EB0187
:1007100083E48EBD85E00E94D10485E00E9430050F
:1007200008B605FC05C085E00E9420058823C1F3BA
:1007300085E00E942005182F85E00E94410585E094
:100740000E944D05E6B4F7B488B7806288BF1130C7
:1007500011F410E026C085E0BE010E94D10485E0BE
:100760000E94300508B605FC05C085E00E94200502
:100770008823C1F385E00E94200510E0813009F054
:1007800011E085E00E94410585E00E944D0586B597
:1007900097B58E199F09F6019183808388B780628F
:1007A00088BF812FDF91CF911F91FF90EF90DF9055
:1007B000CF900895CF92DF92EF92FF921F93CF9345
:1007C000DF936C01EB0183E48EBD85E00E94D104D0
:1007D00085E00E94300508B605FC05C085E00E9452
:1007E00020058823C1F385E00E942005182F85E0AD
:1007F0000E94410585E00E944D05E6B4F7B488B734
:10080000806288BF113011F410E028C083E08EBDF3
:1008100085E0BE010E94D10485E00E94300508B643
:1008200005FC05C085E00E9420058823C1F385E012
:100830000E94200510E0813009F011E085E00E945F
:10084000410585E00E944D0586B597B58E199F0933
:10085000F6019183808388B7806288BF812FDF9102
:10086000CF911F91FF90EF90DF90CF90089581304E
:1008700091F0813050F08230C1F08330F9F48F9ADA
:1008800015BC89E685BD14BC0895BB9A13BE8BE6E2
:1008900083BF12BE08958D9A8FB581688FBD8EB5C6
:1008A0008B608EBD1DBC1CBC08958C9A8FB5816277
:1008B0008FBD8EB58B608EBD1DBC1CBC0895613094
:1008C00051F0613030F0623051F0633059F483BD43
:1008D00008958CBF089590E09BBD8ABD089590E077
:1008E00099BD88BD0895262F9FEF899FC0011124CF
:1008F00064E670E00E94CF1A222321F0233019F41D
:1009000063BD08956CBF08958FB9779BFECF8FB1FB
:100910000895CF93DF93EC0187E00E943005888132
:100920008FB9779905C087E00E9420058823C9F315
:1009300087E00E94410587E00E944D058EB19FB17E
:100940009883881F8827881FDF91CF91089593E6A9
:100950009DB9813029F46C9A87B3806B87BB01C045
:10096000BE9A87E065E070E00E94D104089590E0AF
:10097000FC01EE0FFF1FE80FF91FDF01119686E85B
:1009800095E0AA0FBB1FA80FB91F11961C921E92CB
:10099000EE0FFF1FE80FF91F1182108214821582DB
:1009A000089590E0FC01EE0FFF1FE80FF91FDF0133
:1009B000AA0FBB1FAA57BA4F8D919C911197892BF3
:1009C00071F411967C936E93EE0FFF1FE857FA4F68
:1009D0001182108214961C92149715961C920895F9
:1009E00040E050E09A01220F331F240F351FD90138
:1009F000AA0FBB1FAA57BA4F15966C911597613075
:100A0000B1F4F901EE0FFF1FE857FA4F8081918191
:100A1000019691838083208131818D919C911197E2
:100A20002817390721F41182108214966C934F5FB6
:100A30005F4F4A305105B1F608950E94F0040895C1
:100A400090E0FC01EE0FFF1FE80FF91FEE0FFF1FF4
:100A5000EA57FA4F8481882311F0148281E00895C7
:100A600090E0FC01EE0FFF1FE80FF91FEE0FFF1FD4
:100A7000EA57FA4F80819181892B11F081E08583BB
:100A8000089590E0FC01EE0FFF1FE80FF91FEE0F35
:100A9000FF1FEA57FA4F1582089590E0FC01EE0F10
:100AA000FF1FE80FF91FEE0FFF1FE857FA4F1182E3
:100AB000108208950E947A058DE195E00E948705D5
:100AC00080E090E0FC01EE0FFF1FE80FF91FEE0F32
:100AD000FF1FDF01A857BA4F11961C921E92EA57CA
:100AE000FA4F118210821482158201968A30910584
:100AF00049F7089585B5876085BD89E784BD89B7C5
:100B0000806489BF88B7806488BF78940895909383
:100B1000C3058093C20508951092C3051092C205C3
:100B200008951F920F920FB60F9211242F933F93A7
:100B30004F935F936F937F938F939F93AF93BF93E5
:100B4000EF93FF93E091C205F091C305309709F050
:100B5000099589E784BD88B7806488BFFF91EF91CC
:100B6000BF91AF919F918F917F916F915F914F91C5
:100B70003F912F910F900FBE0F901F9018955F9B84
:100B8000FECF8CB108955D9BFECF8CB90895FC011A
:100B900080E006C090815D9BFECF9CB98F5F31964F
:100BA0008617C0F3089520E004C05D9BFECFECB92A
:100BB0002F5FFC01E20FF11DE081EE23B1F70895F4
:100BC0005D9BFECF8DE08CB95D9BFECF8AE08CB93A
:100BD0000895CF92DF92EF92FF920F931F93DF93CE
:100BE000CF9300D0CDB7DEB7F82ED62EC42E6AE054
:100BF0000E94AF1A90E08E010F5F1F4FB8014AE0CC
:100C000050E00E94041BC8010E94D3058F2D6AE0AA
:100C10000E94AF1A892F90E0B8014AE050E00E948C
:100C2000041BC8010E94D30580E6E82E80E0F82E60
:100C3000C7010E94D3058D2D6AE00E94AF1A90E093
:100C4000B8014AE050E00E94041BC8010E94D3058D
:100C50008D2D6AE00E94AF1A892F90E0B8014AE01A
:100C600050E00E94041BC8010E94D305C7010E94E6
:100C7000D3058C2D6AE00E94AF1A90E0B8014AE0DB
:100C800050E00E94041BC8010E94D3058C2D6AE02D
:100C90000E94AF1A892F90E0B8014AE050E00E940C
:100CA000041BC8010E94D3050F900F90CF91DF91D4
:100CB0001F910F91FF90EF90DF90CF9008950F93C9
:100CC0001F93DF93CF9300D000D000D0CDB7DEB715
:100CD0008E010F5F1F4F26E0F80111922A95E9F768
:100CE000B8014AE050E00E94041B80E0980104C073
:100CF0005D9BFECFECB98F5FF901E80FF11DE0813C
:100D0000EE23B1F726960FB6F894DEBF0FBECDBF27
:100D1000CF91DF911F910F9108950F931F93DF9350
:100D2000CF9300D000D000D0CDB7DEB78E010F5FDB
:100D30001F4F26E0F80111922A95E9F7B8014AE021
:100D400050E00E94041B82E690E060E10E94C7052B
:100D500090E098014AE107C05D9BFECFECB9842F7B
:100D60008A95F1F79F5FF901E90FF11DE081EE230C
:100D700099F726960FB6F894DEBF0FBECDBFCF9180
:100D8000DF911F910F9108950F931F93DF93CF93DE
:100D900000D000D000D0CDB7DEB78E010F5F1F4F5F
:100DA00026E0F80111922A95E9F7B8014AE050E0EF
:100DB0000E94041B83E790E06FE00E94C70520E0DB
:100DC000B8013EE240ED57E00CC05D9BFECFECB9B0
:100DD000213019F45D9BFECF3CB9CA010197F1F7B0
:100DE0002F5FFB01E20FF11DE081EE2371F782E836
:100DF00090E063E00E94C70526960FB6F894DEBF28
:100E00000FBECDBFCF91DF911F910F9108951F931A
:100E1000182F86E00E9430055D9905C086E00E948B
:100E200020058823C9F386E00E94410586E00E94E0
:100E30004D055D9902C080E002C01CB981E01F91A0
:100E40000895CF93DF93EC0186E00E9430055F990F
:100E500005C086E00E9420058823C9F386E00E9431
:100E6000410586E00E944D058BB19CB19883881F97
:100E70008827881FDF91CF910895CF93DF93EC01EE
:100E80001AB810BC288139814A815B8164E0220F45
:100E9000331F441F551F6A95D1F760E072E18AE75E
:100EA00090E00E94E21A2150304040405040BB2761
:100EB000A52F942F832F80BD29B98F818111579A37
:100EC00088858111569A89858111549A8A85811164
:100ED000539A90B58E818295807F892B80BD90B585
:100EE0008D81880F880F880F892B80BD2C81293038
:100EF00011F4529A0CC0253069F0263019F480B5EF
:100F0000826807C0273019F480B5846802C080B5B4
:100F1000866880BD86E065E070E00E94D104DF91C4
:100F2000CF91089598B3907F982B98BB0895EF9236
:100F3000FF920F931F93CF93DF93EC0168EE73E062
:100F40000E94BB1A182F092F64E670E00E94BB1A9A
:100F5000F82EE92E83E0C83ED807F0F082E462E084
:100F60000E94E40183E463E00E949B0181E465E068
:100F70000E949B0181E464E00E949B0128B3CE01A2
:100F800068EE73E00E94BB1A207F262B28BB80E10D
:100F900097E20197F1F703C0C436D105F0F083E47E
:100FA00063E00E94E40182E462E00E949B0181E42C
:100FB00065E00E949B0181E464E00E949B0128B3EC
:100FC000812F902F64E670E00E94BB1A207F262BB1
:100FD00028BB80E197E20197F1F72A97F0F081E4CE
:100FE00064E00E94E40181E465E00E949B0182E4E8
:100FF00062E00E949B0183E463E00E949B0128B3AE
:101000008F2D9E2D6AE070E00E94BB1A207F262B58
:1010100028BB80E197E20197F1F781E465E00E9447
:10102000E40181E464E00E949B0183E463E00E94A8
:101030009B0182E462E00E949B0128B38F2D9E2DCC
:101040006AE070E00E94BB1A207F282B28BB80E159
:1010500097E20197F1F7DF91CF911F910F91FF90E8
:10106000EF90089582E460E041E00E940A0182E48A
:1010700061E041E00E940A0182E462E041E00E94F6
:101080000A0182E463E041E00E940A0183E465E032
:1010900041E00E940A0183E464E041E00E940A0109
:1010A00083E462E041E00E940A0183E463E041E0FE
:1010B0000E940A010895282F6AE00E94AF1A96E064
:1010C000899FC0011124820F0895DF92EF92FF9251
:1010D0000F931F93DF93CF9300D0CDB7DEB7F82ED9
:1010E000E62ED42E6AE00E94AF1A90E08E010F5FC8
:1010F0001F4FB8014AE050E00E94041BC8010E9443
:1011000017178F2D6AE00E94AF1A892F90E0B8015F
:101110004AE050E00E94041BC8010E9417178AE3AE
:1011200090E00E94CE168E2D6AE00E94AF1A90E0E9
:10113000B8014AE050E00E94041BC8010E94171742
:101140008E2D6AE00E94AF1A892F90E0B8014AE024
:1011500050E00E94041BC8010E9417178AE390E028
:101160000E94CE168D2D6AE00E94AF1A90E0B80161
:101170004AE050E00E94041BC8010E9417178D2D01
:101180006AE00E94AF1A892F90E0B8014AE050E06F
:101190000E94041BC8010E9417170F900F90CF9157
:1011A000DF911F910F91FF90EF90DF900895EF92E4
:1011B000FF920F931F93162F042F0E945B08E82EB7
:1011C000812F0E945B08F82E802F0E945B08182F49
:1011D0000E945F0380ED0E94580384E00E94580340
:1011E0008E2D0E9458038F2D0E945803812F0E943C
:1011F00058030E9465031F910F91FF90EF9008958F
:10120000EF92FF920F931F93162F042F0E945B08FB
:10121000E82E812F0E945B08F82E802F0E945B0829
:10122000182F0E945F0380ED0E94580380E00E9407
:101230005803812F0E9458038F2D0E9458038E2D32
:101240000E9458030E9465031F910F91FF90EF9039
:101250000895AF92BF92CF92DF92EF92FF920F93D9
:101260001F937C016B015A010E945F0380ED0E9475
:10127000580384E00E9458030E9465030E945F03A4
:1012800081ED0E94580381E00E946E03182F81E0D7
:101290000E946E03082F80E00E946E03912F9295AA
:1012A0009F702AEF3FEF929F902D1124910FF7012D
:1012B0009083902F92959F70929F902D1124900F64
:1012C000F6019083982F92959F70929F902D1124F4
:1012D000980FF50190830E9465031F910F91FF9075
:1012E000EF90DF90CF90BF90AF900895AF92BF92F4
:1012F000CF92DF92EF92FF920F931F935C016B01ED
:101300007A010E945F0380ED0E94580380E00E94F2
:1013100058030E9465030E945F0381ED0E945803F9
:1013200081E00E946E03182F81E00E946E03082F57
:1013300080E00E946E03912F92959F702AEF3FEFFD
:10134000929F902D1124910FF7019083902F9295E9
:101350009F70929F902D1124900FF6019083982FEB
:1013600092959F70929F902D1124980FF501908374
:101370000E9465031F910F91FF90EF90DF90CF9037
:10138000BF90AF9008950E9468030E945F0380EDB4
:101390000E94580387E00E94580380E00E9458038F
:1013A0000E94650388EC90E00197F1F708950F9390
:1013B0001F93082F162F0E945F03812F0E9458034E
:1013C000802F0E9458030E945F03812F81600E943A
:1013D000580380E00E946E03182F0E946503812F3E
:1013E0001F910F910895FF920F931F93182F062FAF
:1013F000F42E0E945F03802F0E945803812F0E94C9
:1014000058038F2D0E9458030E94650380E395E7DF
:101410000197F1F71F910F91FF9008950E946803C3
:101420000895DF92EF92FF920F931F93DF93CF9374
:101430000F92CDB7DEB7D82E8B017A0181E0898378
:1014400080E26030780708F019820E945F038D2DDA
:101450000E945803812F0E945803802F0E94580336
:101460000E945F038D2D81600E94580380E00E94DE
:101470006E03F70180830E94650389810F90CF91ED
:10148000DF911F910F91FF90EF90DF900895EF9201
:10149000FF920F931F93DF93CF930F92CDB7DEB7D9
:1014A000F82E8B01E42E81E0898380E2603078079A
:1014B00008F019820E945F038F2D0E945803812F2C
:1014C0000E945803802F0E9458038E2D0E945803BB
:1014D0000E94650380E49CE90197F1F789810F90F0
:1014E000CF91DF911F910F91FF90EF9008950E948F
:1014F000680308950F931F93CF93DF930E94E00535
:1015000086E890E00E94D3050E94E0058BEA90E017
:101510000E94D3058EEA90E00E94D3050E94E00568
:101520000E943D1781E061E00E94F6168FEB90E08B
:101530000E94171780E29EE428EC30E0F901319711
:10154000F1F70197D9F781E00E94370483E662E062
:1015500041E00E940A0182E00E94370483E663E0D2
:1015600041E00E940A01C0E0D0E000E21EE48C2FBE
:1015700061E00E945F0483E662E00E949B018C2F81
:1015800062E00E945F0483E663E00E949B01C80161
:101590000197F1F7CE0162E370E00E94CF1A892B28
:1015A00021F48DEC90E00E9417172196C83CD105DC
:1015B000F1F60E943D1781E061E00E94F6168FEC83
:1015C00090E00E9417170E94E0058BEA90E00E94CD
:1015D000D3058FEC90E00E94D3050E94E00586E8D9
:1015E00090E00E94D3050E94E005DF91CF911F910A
:1015F0000F9108950F931F930E947B160E94E005A0
:1016000086E890E00E94D3050E94E0058BEA90E016
:101610000E94D30582EE90E00E94D3050E94E0056F
:101620000E943D1781E061E00E94F61684EF90E091
:101630000E94171780E29EE428EC30E0F901319710
:10164000F1F70197D9F78BEA90E00E94D30583E088
:1016500091E00E94D3050E94E00584E191E00E94A0
:10166000D3050E94E0058BEA90E00E94D3058091AB
:101670004D0590914E050E94D3050E94E0050E9401
:101680003D1781E061E00E94F61680914D05909132
:101690004E050E94171780E29EE428EC30E0F90125
:1016A0003197F1F70197D9F706C011E00E940B16A8
:1016B000082F882311F410E0F9CF1123B9F781E046
:1016C00061E00E94F616802F90E062E00E94CC1745
:1016D0008BEA90E00E94D30589E391E00E94D30554
:1016E000802F90E00E945F060E94E0050930E9F635
:1016F0000E943D1781E061E00E94F61689E491E0C6
:101700000E9417178BEA90E00E94D30585E591E0CF
:101710000E94D3050E94E00586E890E00E94D30570
:101720001F910F910895DF92EF92FF920F931F93F5
:10173000DF93CF930F92CDB7DEB70E94E00586E826
:1017400090E00E94D3050E94E0058BEA90E00E94A1
:10175000D30589E691E00E94D3050E94E0050E942E
:101760003D1781E061E00E94F6168BE791E00E9450
:10177000171780E49CE928EC30E0F9013197F1F784
:101780000197D9F784E191E00E94D3050E94E0051A
:101790008BEA90E00E94D3058BE891E00E94D3058C
:1017A0000E94E0058BEA90E00E94D30582E991E077
:1017B0000E94D3050E94E0058BEA90E00E94D305C9
:1017C00081EA91E00E94D3050E94E00519820E94FF
:1017D0003D170E94770A81E061E00E94F61682E9D7
:1017E00091E00E94171782E061E00E94F6168FEAEE
:1017F00091E00E9417178AE0D82E7E010894E11C20
:10180000F11C81E061E00E94F61682E991E00E94FD
:10181000171782E061E00E94F6168FEA91E00E94BD
:1018200017170E940B16813029F00E940B16823088
:1018300009F0D0C00E943D170E940B16813021F0A4
:10184000823009F0C7C075C00E940B168823E1F7EB
:101850008BEA90E00E94D3058DEB91E00E94D305C6
:1018600081E061E00E94F6168BEC91E00E94171770
:101870000E940B16882329F10E940B16893008F567
:101880008091C605082F10E00E940B1609531A4FCD
:10189000F80180830E940B168823E1F78091C6052A
:1018A0008F5F8093C605823061F41092C6058091E7
:1018B000C80590E00E945F068091C70590E00E94F5
:1018C0005F068091C8058D9D900111249091C705F8
:1018D000290F311D3093C5052093C405805D0E94FA
:1018E000CE168091C705805D0E94CE1682E061E031
:1018F0000E94F61684ED91E00E9417170E940B16C5
:10190000893009F0ADCF0E940B168930E1F380EAEF
:1019100060E170E04091C4050E94470A0E943D17B3
:101920000E94E0058BEA90E00E94D30588EE91E0EA
:1019300047C00E940B168823E1F78BEA90E00E94D3
:10194000D30584EF91E00E94D30581E061E00E941D
:10195000F61681E092E00E94171780EA60E170E0DD
:10196000A7010E94110A89816AE00E94AF1A805D76
:101970000E94CE1689816AE00E94AF1A892F805D8D
:101980000E94CE1682E061E00E94F61684ED91E09E
:101990000E9417170E940B168930B9F6898190E0D2
:1019A0000E945F060E940B168930E1F30E943D17EA
:1019B0000E94E0058BEA90E00E94D3058BE092E064
:1019C0000E94D3050E94E00584E191E00E94D305C6
:1019D0000E94E0050E940B16893009F012CF85E1C4
:1019E00092E00E94D3058AE192E00E94D3050E9412
:1019F000E00586E890E00E94D3050F90CF91DF913B
:101A00001F910F91FF90EF90DF9008952F923F92DA
:101A10004F925F926F927F928F929F92AF92BF92FE
:101A2000CF92DF92EF92FF921F93DF93CF9300D07C
:101A300000D000D0CDB7DEB719821A821B821C827B
:101A40001D821E820E943D170E94C3090E947B16C0
:101A50000E94E00586E890E00E94D3050E94E00520
:101A60008BEA90E00E94D3058EE292E00E94D305BB
:101A70000E94E00580E29EE428EC30E0F901319715
:101A8000F1F70197D9F784E191E00E94D3050E9414
:101A9000E0058BEA90E00E94D30580914D0590917E
:101AA0004E050E94D3050E94E0050E943D1781E08B
:101AB00061E00E94F61680914D0590914E050E94BE
:101AC000171780E29EE428EC30E0F9013197F1F736
:101AD0000197D9F70E943D1710E062E0262E312CC5
:101AE0002C0E3D1E53E0452E512C4C0E5D1E3E012A
:101AF0000894611C711C44E0842E912C8C0E9D1E58
:101B000035E0A32EB12CAC0EBD1E26E0C22ED12C8A
:101B1000CC0EDD1E98ECE92EF12CC301B101A2011F
:101B20000E947609C401B501A6010E94290981E03D
:101B300061E00E94F6168DE392E00E9417178981FA
:101B40006A814B810E94650882E061E00E94F6167E
:101B500085E492E00E9417178C816D814E810E946E
:101B6000650888EE93E0F7013197F1F70197D9F70F
:101B70001730E8F08BEA90E00E94D3058DE392E005
:101B80000E94D30589816A814B810E94E9058DE419
:101B900092E00E94D30585E492E00E94D3058C81F7
:101BA0006D814E810E94E9050E94E00510E00E94CF
:101BB0000B16893011F01F5FB0CF8BEA90E00E94C6
:101BC000D30583E592E00E94D3050E94E00586E8F4
:101BD00090E00E94D30526960FB6F894DEBF0FBEA4
:101BE000CDBFCF91DF911F91FF90EF90DF90CF900D
:101BF000BF90AF909F908F907F906F905F904F902D
:101C00003F902F90089581E061E00E94F616809148
:101C10004705909148050E94171782E061E00E94F5
:101C2000F6168091490590914A050E9417170E9467
:101C30007B160E940B16853029F00E940B16863009
:101C400009F07FC00E940B168630F1F1893009F44B
:101C500076C08530B9F70E94930B0E94E0058BEAAD
:101C600090E00E94D30580914D0590914E050E9411
:101C7000D3050E94E00584E191E00E94D3050E9413
:101C8000E0058BEA90E00E94D30584E692E00E9492
:101C9000D3050E94E00586E890E00E94D3050E94EB
:101CA000E0050E943D1781E061E00E94F6168091F8
:101CB0004D0590914E050E94171782E061E00E9449
:101CC000F61684E692E038C00E94060D0E94E005F8
:101CD0008BEA90E00E94D30580914D0590914E05CE
:101CE0000E94D3050E94E00584E191E00E94D305A3
:101CF0000E94E0058BEA90E00E94D30584E792E021
:101D00000E94D3050E94E00586E890E00E94D3057A
:101D10000E94E0050E943D1781E061E00E94F616F6
:101D200080914D0590914E050E94171782E061E069
:101D30000E94F61684E792E00E94171783CF0E9454
:101D40003D170895EF92FF920F931F93CF93DF9368
:101D50000E943D1781E061E00E94F61680915505D2
:101D6000909156050E9417170E94E00586E890E0C2
:101D70000E94D3050E94E00584E892E00E94D3050A
:101D80008CE892E00E94D30580E29EE428EC30E0EB
:101D9000F9013197F1F70197D9F70E94E00584E145
:101DA00091E00E94D3050E94E0058BEA90E00E943A
:101DB000D30589E992E00E94D3050E94E00580E204
:101DC0009EE428EC30E0F9013197F1F70197D9F75B
:101DD000C0E0D0E0F8ECEF2EF12C0E943D1781E03E
:101DE00061E00E94F61685EB92E00E94171787E0EB
:101DF0000E9480008C0162E00E94CC1788E893E189
:101E0000F7013197F1F70197D9F78BEA90E00E943B
:101E1000D30586EC92E00E94D305C8010E945F06BC
:101E20000E94E0052196CC30D105B9F60E94E0056C
:101E30008BEA90E00E94D30587ED92E00E94D305E3
:101E400080E29EE428EC30E0F9013197F1F7019748
:101E5000D9F70E94E00584E191E00E94D3050E9439
:101E6000E0058BEA90E00E94D30583EF92E00E94A8
:101E7000D3050E94E0050E943D1780E29EE428EC15
:101E800030E0F9013197F1F70197D9F78CE093E051
:101E90000E94171780E197E228EC30E0F9013197B2
:101EA000F1F70197D9F7C0E0D0E0E8ECEE2EF12C85
:101EB0000E943D1781E061E00E94F61689E193E0FF
:101EC0000E94171786E00E9480008C0162E00E9449
:101ED000CC1788E893E1F7013197F1F70197D9F72B
:101EE0008BEA90E00E94D30588E293E00E94D3053C
:101EF000C8010E945F060E94E0052196CC30D10502
:101F0000B9F60E94E0058BEA90E00E94D30587E3D2
:101F100093E00E94D30580E29EE428EC30E0F901D2
:101F20003197F1F70197D9F70E94E00584E191E03C
:101F30000E94D3050E94E0058BEA90E00E94D30541
:101F400080E593E00E94D3050E94E0050E943D17C2
:101F500080E29EE428EC30E0F9013197F1F7019737
:101F6000D9F70E943D1781E693E00E941717C0E061
:101F7000D0E078ECE72EF12C0E943D1781E061E083
:101F80000E94F6168DE693E00E94171782E00E94E9
:101F900080008C0162E00E94CC1788E893E1F70191
:101FA0003197F1F70197D9F721968BEA90E00E94DB
:101FB000D30584E793E00E94D305C8010E945F0621
:101FC0000E94E005CC30D105B9F680E29EE428EC11
:101FD00030E0F9013197F1F70197D9F70E943D17E9
:101FE0008BE793E00E94171780E29EE428EC30E034
:101FF000F9013197F1F70197D9F70E94E0058BEAD3
:1020000090E00E94D30586E893E00E94D3050E94E9
:10201000E00580E29EE428EC30E0F9013197F1F729
:102020000197D9F784E191E00E94D3050E94E00571
:102030008BEA90E00E94D30587E993E00E94D305E4
:102040000E94E00586E890E00E94D305DF91CF91E1
:102050001F910F91FF90EF900895EF92FF920F93D1
:102060001F93CF93DF930E94E00586E890E00E94E3
:10207000D3050E94E0058BEA90E00E94D30588EA30
:1020800093E00E94D3050E9432080E943D1781E030
:1020900061E00E94F61680915305909154050E94CC
:1020A000171700E010E0C0E0D0E0EE24FF2406C0E7
:1020B0002196CA31D10510F0095A1B4FC80167E5B6
:1020C00074E00E94BB1A892B51F4CA31D10538F053
:1020D0008DEC90E00E94D3057801C0E0D0E0C7010C
:1020E0000E94970787E20031180710F30E943D17FE
:1020F0008BEB93E00E94171780EE9EE228EC30E015
:10210000F9013197F1F70197D9F70E94E00585E1D0
:1021100092E00E94D30587EC93E00E94D3050E94D1
:10212000E00586E890E00E94D305DF91CF911F91F2
:102130000F91FF90EF90089581E061E00E94F61604
:1021400080914305909144050E94171782E061E059
:102150000E94F61680914505909146050E9417173A
:102160000E947B160E940B16833029F00E940B16EA
:10217000843009F07FC00E940B168430F1F1893061
:1021800009F476C08330B9F70E942D100E94E00553
:102190008BEA90E00E94D30580914D0590914E0509
:1021A0000E94D3050E94E00584E191E00E94D305DE
:1021B0000E94E0058BEA90E00E94D3058EED93E04B
:1021C0000E94D3050E94E00586E890E00E94D305B6
:1021D0000E94E0050E943D1781E061E00E94F61632
:1021E00080914D0590914E050E94171782E061E0A5
:1021F0000E94F6168EED93E038C00E94A20E0E9457
:10220000E0058BEA90E00E94D30580914D05909106
:102210004E050E94D3050E94E00584E191E00E94F2
:10222000D3050E94E0058BEA90E00E94D3058EEE74
:1022300093E00E94D3050E94E00586E890E00E94AA
:10224000D3050E94E0050E943D1781E061E00E94F5
:10225000F61680914D0590914E050E94171782E069
:1022600061E00E94F6168EEE93E00E94171783CF6E
:102270000E943D17089584E467E041E00E940A014E
:1022800084E467E00E94E4010E94E00586E890E0B3
:102290000E94D3050E94E0058EEF93E00E94D305D3
:1022A00085E094E00E94D3050E943D1781E061E043
:1022B0000E94F61680914F05909150050E941717C5
:1022C00080E29EE428EC30E0F9013197F1F70197C4
:1022D000D9F78DEC90E00E94D30584E467E00E947A
:1022E0009B0180E197E228EC30E0F9013197F1F7AA
:1022F0000197D9F78DEC90E00E94D30584E467E064
:102300000E94E4010E943D1781E061E00E94F61600
:1023100086E194E00E9417178DEC90E00E94D305AF
:102320000E94E00584E191E00E94D3050E94E0054F
:1023300085E192E00E94D30580E294E00E94D305FB
:102340000E94E00586E890E00E94D30580E197E2D4
:1023500028EC30E0F9013197F1F70197D9F70895AA
:1023600084E464E041E00E940A0184E465E041E025
:102370000E940A0184E466E041E00E940A0184E4CC
:1023800067E041E00E940A0184E467E041E00E94C6
:102390000A0184E464E00E949B0184E467E00E94F7
:1023A000E40184E465E00E949B0184E466E00E940D
:1023B0009B0184E467E00E949B010E943D1781E03D
:1023C00061E00E94F61680914B0590914C050E94A9
:1023D000171782E064E00E94F61685E394E00E94FD
:1023E000171780E797E128EC30E0F9013197F1F712
:1023F0000197D9F784E464E00E94E40184E465E095
:102400000E94E40184E466E00E94E40184E467E061
:102410000E94E40180E197E228EC30E0F901319775
:10242000F1F70197D9F784E466E00E949B0184E408
:1024300067E00E949B0184E464E00E949B0184E4C5
:1024400065E00E949B0180E197E228EC30E0F90111
:102450003197F1F70197D9F784E464E00E94E40131
:1024600084E465E00E94E40184E466E00E94E40103
:1024700084E467E00E94E40180E197E228EC30E028
:10248000F9013197F1F70197D9F784E466E00E94EA
:102490009B0184E467E00E949B0184E464E00E9465
:1024A0009B0184E465E00E949B0180E197E228ECB7
:1024B00030E0F9013197F1F70197D9F784E464E04E
:1024C0000E94E40184E466E00E94E40188E893E16C
:1024D00028EC30E0F9013197F1F70197D9F784E45E
:1024E00065E00E94E40184E467E00E94E40188E87A
:1024F00093E128EC30E0F9013197F1F70197D9F732
:1025000084E466E00E949B0184E464E00E949B01F5
:1025100088E893E128EC30E0F9013197F1F7019771
:10252000D9F784E467E00E949B0184E465E00E949F
:102530009B010E943D1780E494E00E94171780E100
:1025400097E228EC30E0F9013197F1F70197D9F7DC
:1025500080E197E228EC30E0F9013197F1F701973B
:10256000D9F708950E948B1788EE93E028EC30E0AD
:10257000F9013197F1F70197D9F70E943D1781E0F2
:1025800064E00E94F61680913B0590913C050E9404
:10259000171782E063E00E94F61680913D05909146
:1025A0003E050E94171780E395E728EC30E0F9011B
:1025B0003197F1F70197D9F70E943D178EE494E027
:1025C0000E94171782E065E00E94F61680E694E00C
:1025D0000E94171780E29EE428EC30E0F901319761
:1025E000F1F70197D9F7089583B7836083BF89B75F
:1025F000816089BF81E082BF789408950E94800045
:102600009093D2058093D1058091C9059091CA0518
:10261000A091CB05B091CC050296A11DB11D809370
:10262000C9059093CA05A093CB05B093CC058091C2
:10263000C9059091CA05A091CB05B091CC05209118
:10264000CD053091CE054091CF055091D005821B2C
:10265000930B9093DA058093D9052091D1053091A1
:10266000D2058091670590916805281739073CF5D8
:102670002091D9053091DA0580916D0590916E0514
:1026800065E070E00E94CF1ACB01880F991F860F7A
:10269000971F821793079CF42091D1053091D205A2
:1026A00080916505909166052817390744F480915B
:1026B000D1059091D2059093660580936505209190
:1026C000D1053091D20580916705909168058217F8
:1026D00093079CF42091D1053091D2058091630538
:1026E000909164058217930744F48091D1059091ED
:1026F000D20590936405809363058091D9059091EC
:10270000DA058B3F91050CF4F5C02091D10530918D
:10271000D2058091670590916805821793070CF0A8
:10272000E9C08091D305882309F0E4C02091D90540
:102730003091DA0580916D0590916E0565E070E04D
:102740000E94CF1ACB01880F991F860F971F8217FF
:1027500093070CF0CFC081E08093D30584E465E05B
:102760000E94E4018091C9059091CA05A091CB0512
:10277000B091CC052091CD053091CE054091CF058B
:102780005091D005821B930B90936E0580936D053D
:102790008091C9059091CA05A091CB05B091CC0557
:1027A0008093CD059093CE05A093CF05B093D0052F
:1027B00080916B05882319F010926B050895809124
:1027C0006C058823A1F010926C0520E030E0809128
:1027D0006D0590916E05F901EE0FFF1FE152FA4F62
:1027E000918380832F5F3F4F2A30310581F720E0AE
:1027F00030E0B9016F5F7F4FFB01EE0FFF1FE15229
:10280000FA4F80819181F901EE0FFF1FE152FA4FDB
:10281000918380832091D5053091D6054091D705CD
:102820005091D80580819181AA2797FDA095BA2F54
:10283000820F931FA41FB51F8093D5059093D605D3
:10284000A093D705B093D8056930710511F09B01AD
:10285000D0CF80916D0590916E059093F205809395
:10286000F1052091D5053091D6054091D7055091BD
:10287000D8058091F1059091F205AA2797FDA095C2
:10288000BA2F820F931FA41FB51F8093D505909375
:10289000D605A093D705B093D8056091D505709162
:1028A000D6058091D7059091D8052AE030E040E028
:1028B00050E00E94E21AC901DA018093D505909395
:1028C000D605A093D705B093D8052091D5053091B2
:1028D000D6054091D7055091D80560E67AEE80E0A4
:1028E00090E00E94E21A3093F4052093F30581E012
:1028F0008093D4052091D1053091D2058091670550
:102900009091680528173907D4F58091D305813057
:10291000B1F584E465E00E949B011092D30580919B
:102920006305909164052091650530916605821BD1
:10293000930B90936A058093690580916905909146
:102940006A05209165053091660562E070E00E949D
:10295000CF1A260F371F30936805209367058091A3
:102960006705909168059093640580936305809155
:102970006705909168059093660580936505809141
:10298000D9059091DA05855C99401CF180E092E0D0
:102990009093680580936705909364058093630521
:1029A00090936605809365058091C9059091CA054D
:1029B000A091CB05B091CC058093CD059093CE0529
:1029C000A093CF05B093D00581E080936B058093F1
:1029D0006C050895AF92BF92CF92DF92EF92FF9273
:1029E0000F931F9387E00E948000A0E0B0E0BC013D
:1029F000CD010E941E1920E030EC4FE754E40E9404
:102A00008A1820E030E44CE955E40E94F5197B0176
:102A10008C0120E030E14AE156E40E94F5195B01A7
:102A20006C0160E070E48CE995E4A80197010E94D4
:102A300025189B01AC01C601B5010E948A187B01D3
:102A40008C012AE939ED43EE54E40E94AC19882345
:102A50007CF0C801B70123EA31E74FEC55E40E944E
:102A60008A180E94B5192BE13EE141E35DEB68C095
:102A7000C801B70123E333EA48EB54E40E94AC19E0
:102A800088237CF0C801B70122EF3BE148EC55E414
:102A90000E948A180E94B51922EB33E34CE25DEBE9
:102AA0004FC0C801B7012AE939E946E954E40E9458
:102AB000AC1988237CF0C801B70121E230E34FEB69
:102AC00055E40E948A180E94B5192EE83DED46E2B1
:102AD0005DEB36C0C801B70126E636E047E754E4AF
:102AE0000E94AC1988237CF0C801B70122E838E1C4
:102AF00047EB55E40E948A180E94B51924E53EE68A
:102B000042E25DEB1DC0C801B7012DEC3CEE4AE48A
:102B100054E40E94AC1987FF05C060E070E080E0DB
:102B200090E010C0C801B70121E93FE34EEA55E447
:102B30000E948A180E94B51920E83AEE4DE15DEB3B
:102B40000E948A1820E030E048EC52E40E94F51917
:102B50001F910F91FF90EF90DF90CF90BF90AF90BB
:102B600008951F920F920FB60F9211242F933F9347
:102B70004F935F936F937F938F939F93AF93BF9385
:102B8000EF93FF93F89485E00E94FE128091D405A4
:102B9000813039F587E00E94EA146093DB05709379
:102BA000DC058093DD059093DE056091DB05709177
:102BB000DC058091DD059091DE050E94F218DC01B4
:102BC000CB010E94C4068091F3059091F4050E9408
:102BD0008D068DE00E94C3058AE00E94C305109215
:102BE000D40588B78E7F88BF81E082BF7894FF913B
:102BF000EF91BF91AF919F918F917F916F915F9175
:102C00004F913F912F910F900FBE0F901F901895ED
:102C10000E948B1708951F9316B881E465E00E9407
:102C2000E40181E464E00E949B0181E463E00E948E
:102C30009B0181E460E00E94C302882311F411E04B
:102C400011C081E461E00E94C302882311F414E002
:102C500009C081E462E00E94C302882311F417E0F6
:102C600001C010E081E464E00E94E40181E465E0D9
:102C70000E949B0181E463E00E949B0181E460E08B
:102C80000E94C302882311F412E00FC081E461E0C6
:102C90000E94C302882311F415E007C081E462E0BA
:102CA0000E94C302882309F418E081E463E00E94D3
:102CB000E40181E465E00E949B0181E464E00E94FC
:102CC0009B0181E460E00E94C302882311F413E0B9
:102CD0000FC081E461E00E94C302882311F416E072
:102CE00007C081E462E00E94C302882309F419E06E
:102CF000812F1F91089581E460E040E00E940A0165
:102D000081E461E040E00E940A0181E462E040E089
:102D10000E940A0181E465E041E00E940A0181E429
:102D200064E041E00E940A0181E463E041E00E9426
:102D30000A0181E460E00E949B0181E461E00E945D
:102D40009B0181E462E00E949B010895AE98C798C0
:102D5000C698C598C49887FDC79A86FDC69A85FD12
:102D6000C59A84FDC49AAF9A95E09A95F1F7AF9809
:102D7000C798C698C598C49883FDC79A82FDC69A1D
:102D800081FDC59A80FDC49AAF9A85E08A95F1F7D6
:102D9000AF9888E592E00197F1F70895AE9AC79849
:102DA000C698C598C49887FDC79A86FDC69A85FDC2
:102DB000C59A84FDC49AAF9A95E09A95F1F7AF98B9
:102DC000C798C698C598C49883FDC79A82FDC69ACD
:102DD00081FDC59A80FDC49AAF9A85E08A95F1F786
:102DE000AF9888E592E00197F1F70895DF93CF93CC
:102DF00000D000D0CDB7DEB790E8998390EC9A83ED
:102E000094E99B8394ED9C836150FE01E80FF11DD2
:102E10008081860F0E94A61680E49CE90197F1F755
:102E20000F900F900F900F90CF91DF9108951F9307
:102E3000CF93DF93EC0110E003C00E94CE161F5F1A
:102E4000FE01E10FF11D80818823B9F7DF91CF9159
:102E50001F9108950F931F93CF93DF93062FEC01DB
:102E600010E004C089910E94CE161F5F1017D0F3A6
:102E7000DF91CF911F910F91089581E00E94A616D6
:102E800085E08A95F1F780E29EE40197F1F70895D5
:102E90000F931F93CF93DF938B01883090F4880FAB
:102EA000880F880F805C0E94A616C0E0D0E0F80171
:102EB000EC0FFD1F80810E94CE162196C830D105EF
:102EC000B1F7DF91CF911F910F910895CF93DF93C9
:102ED000EC01888182958F708A3010F0895C01C086
:102EE000805D0E94CE1688818F708A3010F0895CD8
:102EF00001C0805D0E94CE16DF91CF91089588BBFE
:102F0000AE98AF9A80ED97E0FC013197F1F7AF985A
:102F10000197F1F708950F931F93A79AA69A87B385
:102F2000806F87BB88B388BB80E30E947F1700E275
:102F30001EE4C8010197F1F780E30E947F17C801E2
:102F40000197F1F780E30E947F17C8010197F1F71D
:102F500080E20E947F17C8010197F1F7C80101972D
:102F6000F1F788E20E94A6168CE00E94A61686E081
:102F70000E94A61680E80E94A61680E49CE90197AC
:102F8000F1F71F910F91089580EC0E94A61680E43E
:102F90009CE90197F1F70895BF92CF92DF92EF92EB
:102FA000FF920F93DF93CF93CDB7DEB728970FB67D
:102FB000F894DEBF0FBECDBFB62E9E012F5F3F4FF0
:102FC00038872F8326E0EF81F88511922A95E9F75B
:102FD000BE016F5F7F4F4AE050E00E94041B00E09B
:102FE0006E010894C11CD11C09C00F5F8B2D602F8E
:102FF0000E94F616F70180810E94CE167601E00E3F
:10300000F11CF7018081882381F728960FB6F89488
:10301000DEBF0FBECDBFCF91DF910F91FF90EF903C
:10302000DF90CF90BF9008950E94B2120E94B0111D
:103030000E943B110E942D100E94A20E0E94FA0ACB
:103040000E94060D0E94930BFFCF5058BB27AA2762
:103050000ED048C139D130F03ED120F031F49F3F3D
:1030600011F41EF42EC10EF4E095E7FB24C1E92F04
:103070004AD180F3BA17620773078407950718F0DF
:1030800071F49EF562C10EF4E0950B2EBA2FA02DBF
:103090000B01B90190010C01CA01A0011124FF2705
:1030A000591B99F0593F50F4503E68F11A16F04000
:1030B000A22F232F342F4427585FF3CF46953795FF
:1030C0002795A795F0405395C9F77EF41F16BA0BC4
:1030D000620B730B840BBAF09150A1F0FF0FBB1F72
:1030E000661F771F881FC2F70EC0BA0F621F731FBB
:1030F000841F48F4879577956795B795F7959E3F18
:1031000008F0B3CF9395880F08F09927EE0F9795A5
:10311000879508950CD0E6C0DED040F0D5D030F0D1
:1031200021F45F3F19F0C7C0511110C1CAC0EBD0E4
:1031300098F39923C9F35523B1F3951B550BBB277E
:10314000AA2762177307840738F09F5F5F4F220F2B
:10315000331F441FAA1FA9F333D00E2E3AF0E0E824
:1031600030D091505040E695001CCAF729D0FE2F70
:1031700027D0660F771F881FBB1F26173707480702
:10318000AB07B0E809F0BB0B802DBF01FF279358B8
:103190005F4F2AF09E3F510568F08DC0D7C05F3F5A
:1031A000ECF3983EDCF3869577956795B795F795A0
:1031B0009F5FC9F7880F911D9695879597F9089598
:1031C000E1E0660F771F881FBB1F62177307840734
:1031D000BA0720F0621B730B840BBA0BEE1F88F743
:1031E000E095089598D088F09F5790F0B92F9927CF
:1031F000B751A0F0D1F0660F771F881F991F1AF002
:10320000BA95C9F712C0B13081F09FD0B1E00895EE
:103210009CC0672F782F8827B85F39F0B93FCCF36F
:10322000869577956795B395D9F73EF490958095F7
:10323000709561957F4F8F4F9F4F0895E89409C017
:1032400097FB3EF490958095709561957F4F8F4FD9
:103250009F4F9923A9F0F92F96E9BB279395F695EF
:10326000879577956795B795F111F8CFFAF4BB0F6D
:1032700011F460FF1BC06F5F7F4F8F4F9F4F16C0D1
:10328000882311F096E911C0772321F09EE8872F5B
:10329000762F05C0662371F096E8862F70E060E017
:1032A0002AF09A95660F771F881FDAF7880F969590
:1032B000879597F9089597F99F6780E870E060E037
:1032C00008959FEF80EC089500240A9416161706BF
:1032D00018060906089500240A9412161306140607
:1032E00005060895092E0394000C11F4882352F06A
:1032F000BB0F40F4BF2B11F460FF04C06F5F7F4F22
:103300008F4F9F4F089557FD9058440F551F59F008
:103310005F3F71F04795880F97FB991F61F09F3FC2
:1033200079F087950895121613061406551FF2CFEB
:103330004695F1DF08C0161617061806991FF1CF3B
:1033400086957105610508940895E894BB27662762
:103350007727CB0197F90895ABD008F48FEF089544
:103360000EF0CAC0AECF6894A6CFD5DFC8F39923BC
:10337000D1F3C6F3DF93CF931F930F93FF92C92F1F
:10338000DD2788232AF02197660F771F881FDAF739
:1033900020E030E040E85FEB9FE3883920F0803E9A
:1033A00030F021968F7752DEE4E5F0E003C04EDE88
:1033B000E1E8F0E0AFD08B01BE01EC01FB2E6F57CE
:1033C00071097595771F880B990B3ADF28E132E771
:1033D00041E35FE316D0AF2D9801AE01FF900F914E
:1033E0001F91CF91DF9143DE7DCF0BD07BCF6CDF80
:1033F00028F071DF18F0952309F05DCF62CF11241A
:10340000A5CF81DFA0F3959FD1F3950F50E0551F15
:10341000629FF001729FBB27F00DB11D639FAA2729
:10342000F00DB11DAA1F649F6627B00DA11D661F78
:10343000829F2227B00DA11D621F739FB00DA11D99
:10344000621F839FA00D611D221F749F3327A00D53
:10345000611D231F849F600D211D822F762F6A2FEF
:1034600011249F5750408AF0E1F088234AF0EE0F74
:10347000FF1FBB1F661F771F881F91505040A9F781
:103480009E3F510570F017CF61CF5F3FECF3983E40
:10349000DCF3869577956795B795F795E7959F5FE8
:1034A000C1F7FE2B880F911D9695879597F9089582
:1034B000990F0008550FAA0BE0E8FEEF1616170645
:1034C000E807F907C0F012161306E407F50798F0AD
:1034D000621B730B840B950B39F40A2661F0232BC6
:1034E000242B252B21F408950A2609F4A140A69542
:1034F0008FEF811D811D08959F3F31F0915020F481
:10350000879577956795B795880F911D96958795BF
:1035100097F90895DF93CF931F930F93FF92EF9244
:10352000DF927B018C01689405C0DA2EEF0169DF20
:10353000FE01E894A5912591359145915591AEF301
:10354000EF0195DDFE019701A801DA9479F7DF908C
:10355000EF90FF900F911F91CF91DF910895991BEC
:1035600079E004C0991F961708F0961B881F7A957A
:10357000C9F780950895AA1BBB1B51E107C0AA1F7C
:10358000BB1FA617B70710F0A61BB70B881F991F04
:103590005A95A9F780959095BC01CD01089597FBA8
:1035A000092E07260AD077FD04D0E5DF06D00020DB
:1035B0001AF4709561957F4F0895F6F7909581956F
:1035C0009F4F0895A1E21A2EAA1BBB1BFD010DC03F
:1035D000AA1FBB1FEE1FFF1FA217B307E407F507C3
:1035E00020F0A21BB30BE40BF50B661F771F881F9F
:1035F000991F1A9469F760957095809590959B0135
:10360000AC01BD01CF010895FB019F01E894423058
:10361000C4F04532B4F44A3029F497FB1EF4909577
:1036200081959F4F642F77270E94BB1A805D8A3354
:103630000CF0895D8193CB010097A1F716F45DE250
:1036400051931082C9010C94251BDC01FC01672FEA
:1036500071917723E1F7329704C07C916D93708369
:0E3660006291AE17BF07C8F30895F894FFCF2C
:10366E003A002020202020202020202050424D20D3
:10367E003A200054656D7065726174757265203AFA
:10368E002000204320003D3D3D3D3D3D3D3D3D3D27
:10369E003D3D3D3D3D3D3D3D3D3D3D3D3D3D3D3D4C
:1036AE003D3D3D3D3D3D3D3D3D3D002020004D6FAE
:1036BE00746F722054657374696E67202E2E004DE0
:1036CE006F746F722054657374696E67002E004DAF
:1036DE006F746F722054657374696E6720446F6ED9
:1036EE0065004B65795061642054657374696E672B
:1036FE00202E2E004B455950414420546573746959
:10370E006E6700507265737320616E7920627574F6
:10371E00746F6E002D2D2D2D2D2D2D2D2D2D2D2D2E
:10372E002D2D2D2D2D2D2D2D2D2D2D2D2D2D2D2DBB
:10373E002D2D2D2D2D2D2D2D004B657950616420B5
:10374E004E756D6265723A20004B455950414420CA
:10375E00446F6E65004B65795061642054657374D7
:10376E00696E6720446F6E6500454550524F4D207F
:10377E0054657374696E67202E2E00454550524F66
:10378E00544D2054657374696E6700505253532024
:10379E003A00312D577269746520454550524F4D90
:1037AE0000322D5265616420454550524F4D003216
:1037BE002D5245414420454550524F4D0057726998
:1037CE0074652044617461203A20002D6461746137
:1037DE00203A20005072657373203920746F207365
:1037EE006176652E2E2E2000577269746520446F07
:1037FE006E652000526561642044617461203A2038
:10380E00002D2064617461203A20005265616420AD
:10381E00446F6E65002020202000454550524F4DCC
:10382E002054657374696E6720446F6E6500525440
:10383E00432054657374696E67202E2E0054494DD3
:10384E0045203A200044415445203A2000202020B3
:10385E002020005254432054657374696E672044CF
:10386E006F6E650050525353203520746F20726571
:10387E007472790050525353203620746F20726543
:10388E007472790020202020202020004144432003
:10389E0054657374696E672000506F6E74656E7434
:1038AE00696F6D657465722054657374696E6720F7
:1038BE002E2E202000504F54454E54494F4D455406
:1038CE004552202E2E00504F54454E54494F4D45D3
:1038DE00544552203D2000506F6E74656E74696FB2
:1038EE006D657465722054657374696E6720446FDC
:1038FE006E650054656D70657261747572652054E5
:10390E00657374696E67202E2E202000504F54452B
:10391E004E205445535445440054454D5045524154
:10392E0054555245202E2E0054454D50455241546B
:10393E00555245203D200054656D70657261747559
:10394E0072652054657374696E6720446F6E6500EE
:10395E004C44522054657374696E67202E2E2020BD
:10396E000054454D5020544553544544004C445248
:10397E00202E2E004C4452203D20004C4452205408
:10398E004553544544004C44522054657374696E3B
:10399E006720446F6E65004144432054657374691B
:1039AE006E6720446F6E6500536576656E205365B5
:1039BE00672054657374696E67200037534547203E
:1039CE0054455354454400536576656E20536567E0
:1039DE002054657374696E6720446F6E6500505293
:1039EE005353203320746F207265747279005052D5
:1039FE005353203420746F20726574727900202026
:103A0E00202020200042757A7A65722054657374E6
:103A1E00696E672020005465737420446F6E6500D4
:103A2E0042757A7A65722054657374696E672044A4
:103A3E006F6E65200054657374696E672E2E2E00AE
:103A4E00205465737420446F6E65203A290020441B
:103A5E006576656C6F706D656E74204B69742000B1
:103A6E0020205465737420200057656C636F6D655C
:103A7E003A2900456D626564646564466162003191
:103A8E002D4C656473207465737400322D42757A03
:103A9E007A6572205465737400332D375365676DE4
:103AAE00656E74205465737400342D414443205464
:103ABE0065737400352D454550524F4D2054657336
:103ACE007400362D5254432054657374004C656453
:103ADE007320616E642052656C61792000505253E0
:103AEE0053203920746F2072657475726E2E2E2ECF
:103AFE000042555A5A45522054657374696E672EAA
:103B0E002E2E0054657374696E67204F4B2000375C
:103B1E005345472054657374696E672E2E2E200010
:103B2E004144432054657374696E672E2E2E200017
:103B3E008025000008000000000101690473047F65
:103B4E00048B049904A904B404C204CD04DD04F169
:103B5E000403050F05200500000000000000000012
:103B6E000000000002000200026400010158028001
:103B7E00250000080000000001012C002B002A0087
:063B8E0040004000290088
:00000001FF
